{
  "contractName": "ChronosCapsuleNFT",
  "abi": [
    {
      "inputs": [],
      "stateMutability": "nonpayable",
      "type": "constructor"
    },
    {
      "anonymous": false,
      "inputs": [
        {
          "indexed": true,
          "internalType": "address",
          "name": "owner",
          "type": "address"
        },
        {
          "indexed": true,
          "internalType": "address",
          "name": "approved",
          "type": "address"
        },
        {
          "indexed": true,
          "internalType": "uint256",
          "name": "tokenId",
          "type": "uint256"
        }
      ],
      "name": "Approval",
      "type": "event"
    },
    {
      "anonymous": false,
      "inputs": [
        {
          "indexed": true,
          "internalType": "address",
          "name": "owner",
          "type": "address"
        },
        {
          "indexed": true,
          "internalType": "address",
          "name": "operator",
          "type": "address"
        },
        {
          "indexed": false,
          "internalType": "bool",
          "name": "approved",
          "type": "bool"
        }
      ],
      "name": "ApprovalForAll",
      "type": "event"
    },
    {
      "anonymous": false,
      "inputs": [
        {
          "indexed": false,
          "internalType": "uint256",
          "name": "tokenId",
          "type": "uint256"
        },
        {
          "indexed": false,
          "internalType": "address",
          "name": "owner",
          "type": "address"
        }
      ],
      "name": "AssetCancelled",
      "type": "event"
    },
    {
      "anonymous": false,
      "inputs": [
        {
          "indexed": true,
          "internalType": "address",
          "name": "from",
          "type": "address"
        },
        {
          "indexed": true,
          "internalType": "address",
          "name": "to",
          "type": "address"
        },
        {
          "indexed": true,
          "internalType": "uint256",
          "name": "tokenId",
          "type": "uint256"
        }
      ],
      "name": "Transfer",
      "type": "event"
    },
    {
      "inputs": [],
      "name": "administrator",
      "outputs": [
        {
          "internalType": "address",
          "name": "",
          "type": "address"
        }
      ],
      "stateMutability": "view",
      "type": "function",
      "constant": true
    },
    {
      "inputs": [
        {
          "internalType": "address",
          "name": "to",
          "type": "address"
        },
        {
          "internalType": "uint256",
          "name": "tokenId",
          "type": "uint256"
        }
      ],
      "name": "approve",
      "outputs": [],
      "stateMutability": "nonpayable",
      "type": "function"
    },
    {
      "inputs": [
        {
          "internalType": "uint256",
          "name": "",
          "type": "uint256"
        }
      ],
      "name": "assetMap",
      "outputs": [
        {
          "internalType": "uint256",
          "name": "tokenId",
          "type": "uint256"
        },
        {
          "internalType": "uint256",
          "name": "basePrice",
          "type": "uint256"
        },
        {
          "internalType": "uint256",
          "name": "highestBid",
          "type": "uint256"
        },
        {
          "internalType": "address payable",
          "name": "owner",
          "type": "address"
        },
        {
          "internalType": "string",
          "name": "urlOfAsset",
          "type": "string"
        }
      ],
      "stateMutability": "view",
      "type": "function",
      "constant": true
    },
    {
      "inputs": [
        {
          "internalType": "uint256",
          "name": "",
          "type": "uint256"
        }
      ],
      "name": "assets",
      "outputs": [
        {
          "internalType": "uint256",
          "name": "basePrice",
          "type": "uint256"
        },
        {
          "internalType": "address payable",
          "name": "owner",
          "type": "address"
        },
        {
          "internalType": "uint256",
          "name": "highestBid",
          "type": "uint256"
        },
        {
          "internalType": "address payable",
          "name": "highestBidder",
          "type": "address"
        },
        {
          "internalType": "string",
          "name": "urlOfAsset",
          "type": "string"
        }
      ],
      "stateMutability": "view",
      "type": "function",
      "constant": true
    },
    {
      "inputs": [],
      "name": "assetsCount",
      "outputs": [
        {
          "internalType": "uint256",
          "name": "",
          "type": "uint256"
        }
      ],
      "stateMutability": "view",
      "type": "function",
      "constant": true
    },
    {
      "inputs": [
        {
          "internalType": "uint256",
          "name": "tokenId",
          "type": "uint256"
        }
      ],
      "name": "getApproved",
      "outputs": [
        {
          "internalType": "address",
          "name": "",
          "type": "address"
        }
      ],
      "stateMutability": "view",
      "type": "function",
      "constant": true
    },
    {
      "inputs": [
        {
          "internalType": "address",
          "name": "owner",
          "type": "address"
        },
        {
          "internalType": "address",
          "name": "operator",
          "type": "address"
        }
      ],
      "name": "isApprovedForAll",
      "outputs": [
        {
          "internalType": "bool",
          "name": "",
          "type": "bool"
        }
      ],
      "stateMutability": "view",
      "type": "function",
      "constant": true
    },
    {
      "inputs": [],
      "name": "name",
      "outputs": [
        {
          "internalType": "string",
          "name": "",
          "type": "string"
        }
      ],
      "stateMutability": "view",
      "type": "function",
      "constant": true
    },
    {
      "inputs": [
        {
          "internalType": "address",
          "name": "from",
          "type": "address"
        },
        {
          "internalType": "address",
          "name": "to",
          "type": "address"
        },
        {
          "internalType": "uint256",
          "name": "tokenId",
          "type": "uint256"
        }
      ],
      "name": "safeTransferFrom",
      "outputs": [],
      "stateMutability": "nonpayable",
      "type": "function"
    },
    {
      "inputs": [
        {
          "internalType": "address",
          "name": "from",
          "type": "address"
        },
        {
          "internalType": "address",
          "name": "to",
          "type": "address"
        },
        {
          "internalType": "uint256",
          "name": "tokenId",
          "type": "uint256"
        },
        {
          "internalType": "bytes",
          "name": "data",
          "type": "bytes"
        }
      ],
      "name": "safeTransferFrom",
      "outputs": [],
      "stateMutability": "nonpayable",
      "type": "function"
    },
    {
      "inputs": [
        {
          "internalType": "address",
          "name": "operator",
          "type": "address"
        },
        {
          "internalType": "bool",
          "name": "approved",
          "type": "bool"
        }
      ],
      "name": "setApprovalForAll",
      "outputs": [],
      "stateMutability": "nonpayable",
      "type": "function"
    },
    {
      "inputs": [
        {
          "internalType": "bytes4",
          "name": "interfaceId",
          "type": "bytes4"
        }
      ],
      "name": "supportsInterface",
      "outputs": [
        {
          "internalType": "bool",
          "name": "",
          "type": "bool"
        }
      ],
      "stateMutability": "view",
      "type": "function",
      "constant": true
    },
    {
      "inputs": [],
      "name": "symbol",
      "outputs": [
        {
          "internalType": "string",
          "name": "",
          "type": "string"
        }
      ],
      "stateMutability": "view",
      "type": "function",
      "constant": true
    },
    {
      "inputs": [],
      "name": "tokenCount",
      "outputs": [
        {
          "internalType": "uint256",
          "name": "",
          "type": "uint256"
        }
      ],
      "stateMutability": "view",
      "type": "function",
      "constant": true
    },
    {
      "inputs": [
        {
          "internalType": "uint256",
          "name": "tokenId",
          "type": "uint256"
        }
      ],
      "name": "tokenURI",
      "outputs": [
        {
          "internalType": "string",
          "name": "",
          "type": "string"
        }
      ],
      "stateMutability": "view",
      "type": "function",
      "constant": true
    },
    {
      "inputs": [
        {
          "internalType": "address",
          "name": "from",
          "type": "address"
        },
        {
          "internalType": "address",
          "name": "to",
          "type": "address"
        },
        {
          "internalType": "uint256",
          "name": "tokenId",
          "type": "uint256"
        }
      ],
      "name": "transferFrom",
      "outputs": [],
      "stateMutability": "nonpayable",
      "type": "function"
    },
    {
      "inputs": [
        {
          "internalType": "address",
          "name": "owner",
          "type": "address"
        }
      ],
      "name": "balanceOf",
      "outputs": [
        {
          "internalType": "uint256",
          "name": "",
          "type": "uint256"
        }
      ],
      "stateMutability": "view",
      "type": "function",
      "constant": true
    },
    {
      "inputs": [],
      "name": "balanceOf",
      "outputs": [
        {
          "internalType": "uint256",
          "name": "",
          "type": "uint256"
        }
      ],
      "stateMutability": "view",
      "type": "function",
      "constant": true
    },
    {
      "inputs": [
        {
          "internalType": "uint256",
          "name": "basePrice",
          "type": "uint256"
        },
        {
          "internalType": "string",
          "name": "urlOfAsset",
          "type": "string"
        }
      ],
      "name": "tokenizeAsset",
      "outputs": [],
      "stateMutability": "nonpayable",
      "type": "function"
    },
    {
      "inputs": [],
      "name": "getAllTokenIds",
      "outputs": [
        {
          "internalType": "uint256[]",
          "name": "",
          "type": "uint256[]"
        }
      ],
      "stateMutability": "view",
      "type": "function",
      "constant": true
    },
    {
      "inputs": [
        {
          "internalType": "uint256",
          "name": "tokenId",
          "type": "uint256"
        }
      ],
      "name": "ownerOf",
      "outputs": [
        {
          "internalType": "address",
          "name": "",
          "type": "address"
        }
      ],
      "stateMutability": "view",
      "type": "function",
      "constant": true
    },
    {
      "inputs": [
        {
          "internalType": "uint256",
          "name": "_tokenId",
          "type": "uint256"
        }
      ],
      "name": "getTokenHighestBid",
      "outputs": [
        {
          "internalType": "uint256",
          "name": "",
          "type": "uint256"
        }
      ],
      "stateMutability": "view",
      "type": "function",
      "constant": true
    },
    {
      "inputs": [
        {
          "internalType": "uint256",
          "name": "_tokenId",
          "type": "uint256"
        }
      ],
      "name": "bid",
      "outputs": [],
      "stateMutability": "payable",
      "type": "function",
      "payable": true
    },
    {
      "inputs": [
        {
          "internalType": "uint256",
          "name": "_tokenId",
          "type": "uint256"
        },
        {
          "internalType": "uint256",
          "name": "_newPrice",
          "type": "uint256"
        }
      ],
      "name": "changeAssetValue",
      "outputs": [],
      "stateMutability": "nonpayable",
      "type": "function"
    },
    {
      "inputs": [
        {
          "internalType": "uint256",
          "name": "_tokenId",
          "type": "uint256"
        }
      ],
      "name": "withdrawBid",
      "outputs": [],
      "stateMutability": "nonpayable",
      "type": "function"
    },
    {
      "inputs": [
        {
          "internalType": "uint256",
          "name": "_tokenId",
          "type": "uint256"
        }
      ],
      "name": "sell",
      "outputs": [],
      "stateMutability": "nonpayable",
      "type": "function"
    },
    {
      "inputs": [
        {
          "internalType": "uint256",
          "name": "_tokenId",
          "type": "uint256"
        }
      ],
      "name": "getBidCount",
      "outputs": [
        {
          "internalType": "uint256",
          "name": "",
          "type": "uint256"
        }
      ],
      "stateMutability": "view",
      "type": "function",
      "constant": true
    },
    {
      "inputs": [
        {
          "internalType": "uint256",
          "name": "_tokenId",
          "type": "uint256"
        }
      ],
      "name": "cancelAsset",
      "outputs": [],
      "stateMutability": "nonpayable",
      "type": "function"
    }
  ],
  "bytecode": "0x60806040523480156200001157600080fd5b506040518060400160405280601181526020017f4368726f6e6f7343617073756c654e46540000000000000000000000000000008152506040518060400160405280600581526020017f43434e4654000000000000000000000000000000000000000000000000000000815250816000908051906020019062000096929190620000f9565b508060019080519060200190620000af929190620000f9565b50505033600960006101000a81548173ffffffffffffffffffffffffffffffffffffffff021916908373ffffffffffffffffffffffffffffffffffffffff1602179055506200020e565b8280546200010790620001a9565b90600052602060002090601f0160209004810192826200012b576000855562000177565b82601f106200014657805160ff191683800117855562000177565b8280016001018555821562000177579182015b828111156200017657825182559160200191906001019062000159565b5b5090506200018691906200018a565b5090565b5b80821115620001a55760008160009055506001016200018b565b5090565b60006002820490506001821680620001c257607f821691505b60208210811415620001d957620001d8620001df565b5b50919050565b7f4e487b7100000000000000000000000000000000000000000000000000000000600052602260045260246000fd5b6146f5806200021e6000396000f3fe6080604052600436106101b65760003560e01c8063722713f7116100ec578063c87b56dd1161008a578063d4330aed11610064578063d4330aed1461064e578063e4849b3214610677578063e985e9c5146106a0578063f53d0a8e146106dd576101b6565b8063c87b56dd146105a5578063cd9df190146105e2578063cf35bdd01461060d576101b6565b80639f181b5e116100c65780639f181b5e146104fd578063a22cb46514610528578063b88d4fde14610551578063bdbed7221461057a576101b6565b8063722713f71461046a578063744d34111461049557806395d89b41146104d2576101b6565b80631e56afe911610159578063454a2ab311610133578063454a2ab3146103ab5780636352211e146103c75780636a17626c1461040457806370a082311461042d576101b6565b80631e56afe91461031c57806323b872dd1461035957806342842e0e14610382576101b6565b8063081812fc11610195578063081812fc1461024c578063095ea7b3146102895780630eaaf4c8146102b2578063129f9008146102db576101b6565b80629f4d22146101bb57806301ffc9a7146101e457806306fdde0314610221575b600080fd5b3480156101c757600080fd5b506101e260048036038101906101dd919061357f565b610708565b005b3480156101f057600080fd5b5061020b60048036038101906102069190613504565b61097c565b6040516102189190613abd565b60405180910390f35b34801561022d57600080fd5b50610236610a5e565b6040516102439190613ad8565b60405180910390f35b34801561025857600080fd5b50610273600480360381019061026e9190613556565b610af0565b6040516102809190613a34565b60405180910390f35b34801561029557600080fd5b506102b060048036038101906102ab91906134c8565b610b36565b005b3480156102be57600080fd5b506102d960048036038101906102d49190613556565b610c4e565b005b3480156102e757600080fd5b5061030260048036038101906102fd9190613556565b610ed7565b604051610313959493929190613df8565b60405180910390f35b34801561032857600080fd5b50610343600480360381019061033e9190613556565b610fb5565b6040516103509190613d5a565b60405180910390f35b34801561036557600080fd5b50610380600480360381019061037b91906133c2565b610fd5565b005b34801561038e57600080fd5b506103a960048036038101906103a491906133c2565b611035565b005b6103c560048036038101906103c09190613556565b611055565b005b3480156103d357600080fd5b506103ee60048036038101906103e99190613556565b61135c565b6040516103fb9190613a34565b60405180910390f35b34801561041057600080fd5b5061042b600480360381019061042691906135d7565b611411565b005b34801561043957600080fd5b50610454600480360381019061044f919061335d565b6114f1565b6040516104619190613d5a565b60405180910390f35b34801561047657600080fd5b5061047f6115a9565b60405161048c9190613d5a565b60405180910390f35b3480156104a157600080fd5b506104bc60048036038101906104b79190613556565b61165f565b6040516104c99190613d5a565b60405180910390f35b3480156104de57600080fd5b506104e7611745565b6040516104f49190613ad8565b60405180910390f35b34801561050957600080fd5b506105126117d7565b60405161051f9190613d5a565b60405180910390f35b34801561053457600080fd5b5061054f600480360381019061054a919061348c565b6117dd565b005b34801561055d57600080fd5b5061057860048036038101906105739190613411565b6117f3565b005b34801561058657600080fd5b5061058f611855565b60405161059c9190613a9b565b60405180910390f35b3480156105b157600080fd5b506105cc60048036038101906105c79190613556565b61194c565b6040516105d99190613ad8565b60405180910390f35b3480156105ee57600080fd5b506105f76119b4565b6040516106049190613d5a565b60405180910390f35b34801561061957600080fd5b50610634600480360381019061062f9190613556565b6119ba565b604051610645959493929190613d9e565b60405180910390f35b34801561065a57600080fd5b5061067560048036038101906106709190613556565b611ab8565b005b34801561068357600080fd5b5061069e60048036038101906106999190613556565b611c6b565b005b3480156106ac57600080fd5b506106c760048036038101906106c29190613386565b611f84565b6040516106d49190613abd565b60405180910390f35b3480156106e957600080fd5b506106f2612018565b6040516106ff9190613a34565b60405180910390f35b610712600661203e565b600061071e6006612054565b90506000600860008381526020019081526020016000209050848160000181905550338160010160006101000a81548173ffffffffffffffffffffffffffffffffffffffff021916908373ffffffffffffffffffffffffffffffffffffffff16021790555084816002018190555060008160030160006101000a81548173ffffffffffffffffffffffffffffffffffffffff021916908373ffffffffffffffffffffffffffffffffffffffff16021790555083838260040191906107e39291906130d9565b506040518060a0016040528060075481526020018681526020018681526020013373ffffffffffffffffffffffffffffffffffffffff16815260200185858080601f016020809104026020016040519081016040528093929190818152602001838380828437600081840152601f19601f82011690508083019250505050505050815250600a6000600754815260200190815260200160002060008201518160000155602082015181600101556040820151816002015560608201518160030160006101000a81548173ffffffffffffffffffffffffffffffffffffffff021916908373ffffffffffffffffffffffffffffffffffffffff16021790555060808201518160040190805190602001906108fd92919061315f565b5090505061090b3383612062565b600c60003373ffffffffffffffffffffffffffffffffffffffff1673ffffffffffffffffffffffffffffffffffffffff168152602001908152602001600020600081548092919061095b906140cf565b9190505550600160075461096f9190613f24565b6007819055505050505050565b60007f80ac58cd000000000000000000000000000000000000000000000000000000007bffffffffffffffffffffffffffffffffffffffffffffffffffffffff1916827bffffffffffffffffffffffffffffffffffffffffffffffffffffffff19161480610a4757507f5b5e139f000000000000000000000000000000000000000000000000000000007bffffffffffffffffffffffffffffffffffffffffffffffffffffffff1916827bffffffffffffffffffffffffffffffffffffffffffffffffffffffff1916145b80610a575750610a5682612280565b5b9050919050565b606060008054610a6d9061406c565b80601f0160208091040260200160405190810160405280929190818152602001828054610a999061406c565b8015610ae65780601f10610abb57610100808354040283529160200191610ae6565b820191906000526020600020905b815481529060010190602001808311610ac957829003601f168201915b5050505050905090565b6000610afb826122ea565b6004600083815260200190815260200160002060009054906101000a900473ffffffffffffffffffffffffffffffffffffffff169050919050565b6000610b4182612335565b90508073ffffffffffffffffffffffffffffffffffffffff168373ffffffffffffffffffffffffffffffffffffffff161415610bb2576040517f08c379a0000000000000000000000000000000000000000000000000000000008152600401610ba990613cfa565b60405180910390fd5b8073ffffffffffffffffffffffffffffffffffffffff16610bd16123bc565b73ffffffffffffffffffffffffffffffffffffffff161480610c005750610bff81610bfa6123bc565b611f84565b5b610c3f576040517f08c379a0000000000000000000000000000000000000000000000000000000008152600401610c3690613d1a565b60405180910390fd5b610c4983836123c4565b505050565b6008600082815260200190815260200160002060030160009054906101000a900473ffffffffffffffffffffffffffffffffffffffff1673ffffffffffffffffffffffffffffffffffffffff163373ffffffffffffffffffffffffffffffffffffffff161415610cf3576040517f08c379a0000000000000000000000000000000000000000000000000000000008152600401610cea90613bda565b60405180910390fd5b3373ffffffffffffffffffffffffffffffffffffffff166008600083815260200190815260200160002060010160009054906101000a900473ffffffffffffffffffffffffffffffffffffffff1673ffffffffffffffffffffffffffffffffffffffff161415610d98576040517f08c379a0000000000000000000000000000000000000000000000000000000008152600401610d8f90613c3a565b60405180910390fd5b60006008600083815260200190815260200160002060050160003373ffffffffffffffffffffffffffffffffffffffff1673ffffffffffffffffffffffffffffffffffffffff16815260200190815260200160002054905060008111610e33576040517f08c379a0000000000000000000000000000000000000000000000000000000008152600401610e2a90613d3a565b60405180910390fd5b60006008600084815260200190815260200160002060050160003373ffffffffffffffffffffffffffffffffffffffff1673ffffffffffffffffffffffffffffffffffffffff168152602001908152602001600020819055503373ffffffffffffffffffffffffffffffffffffffff166108fc829081150290604051600060405180830381858888f19350505050158015610ed2573d6000803e3d6000fd5b505050565b600a6020528060005260406000206000915090508060000154908060010154908060020154908060030160009054906101000a900473ffffffffffffffffffffffffffffffffffffffff1690806004018054610f329061406c565b80601f0160208091040260200160405190810160405280929190818152602001828054610f5e9061406c565b8015610fab5780601f10610f8057610100808354040283529160200191610fab565b820191906000526020600020905b815481529060010190602001808311610f8e57829003601f168201915b5050505050905085565b600060086000838152602001908152602001600020600201549050919050565b610fe6610fe06123bc565b8261247d565b611025576040517f08c379a000000000000000000000000000000000000000000000000000000000815260040161101c90613afa565b60405180910390fd5b611030838383612512565b505050565b611050838383604051806020016040528060008152506117f3565b505050565b803373ffffffffffffffffffffffffffffffffffffffff166008600083815260200190815260200160002060010160009054906101000a900473ffffffffffffffffffffffffffffffffffffffff1673ffffffffffffffffffffffffffffffffffffffff1614156110fb576040517f08c379a00000000000000000000000000000000000000000000000000000000081526004016110f290613c1a565b60405180910390fd5b60086000838152602001908152602001600020600201543411611153576040517f08c379a000000000000000000000000000000000000000000000000000000000815260040161114a90613b7a565b60405180910390fd5b3373ffffffffffffffffffffffffffffffffffffffff166008600084815260200190815260200160002060010160009054906101000a900473ffffffffffffffffffffffffffffffffffffffff1673ffffffffffffffffffffffffffffffffffffffff1614156111f8576040517f08c379a00000000000000000000000000000000000000000000000000000000081526004016111ef90613c1a565b60405180910390fd5b60006008600084815260200190815260200160002060020154146112cd5760086000838152602001908152602001600020600201546008600084815260200190815260200160002060050160006008600086815260200190815260200160002060030160009054906101000a900473ffffffffffffffffffffffffffffffffffffffff1673ffffffffffffffffffffffffffffffffffffffff1673ffffffffffffffffffffffffffffffffffffffff16815260200190815260200160002060008282546112c59190613f24565b925050819055505b34600860008481526020019081526020016000206002018190555034600a600084815260200190815260200160002060020181905550336008600084815260200190815260200160002060030160006101000a81548173ffffffffffffffffffffffffffffffffffffffff021916908373ffffffffffffffffffffffffffffffffffffffff1602179055505050565b600080600a600084815260200190815260200160002060030160009054906101000a900473ffffffffffffffffffffffffffffffffffffffff169050600073ffffffffffffffffffffffffffffffffffffffff168173ffffffffffffffffffffffffffffffffffffffff161415611408576040517f08c379a00000000000000000000000000000000000000000000000000000000081526004016113ff90613bfa565b60405180910390fd5b80915050919050565b813373ffffffffffffffffffffffffffffffffffffffff166008600083815260200190815260200160002060010160009054906101000a900473ffffffffffffffffffffffffffffffffffffffff1673ffffffffffffffffffffffffffffffffffffffff16146114b6576040517f08c379a00000000000000000000000000000000000000000000000000000000081526004016114ad90613cba565b60405180910390fd5b81600860008581526020019081526020016000206000018190555081600a600085815260200190815260200160002060010181905550505050565b60008073ffffffffffffffffffffffffffffffffffffffff168273ffffffffffffffffffffffffffffffffffffffff161415611562576040517f08c379a000000000000000000000000000000000000000000000000000000000815260040161155990613c5a565b60405180910390fd5b600360008373ffffffffffffffffffffffffffffffffffffffff1673ffffffffffffffffffffffffffffffffffffffff168152602001908152602001600020549050919050565b60008073ffffffffffffffffffffffffffffffffffffffff163373ffffffffffffffffffffffffffffffffffffffff16141561161a576040517f08c379a000000000000000000000000000000000000000000000000000000000815260040161161190613c7a565b60405180910390fd5b600c60003373ffffffffffffffffffffffffffffffffffffffff1673ffffffffffffffffffffffffffffffffffffffff16815260200190815260200160002054905090565b6000806000905060005b600860008581526020019081526020016000206002015481101561173b5760006008600086815260200190815260200160002060050160006008600088815260200190815260200160002060030160009054906101000a900473ffffffffffffffffffffffffffffffffffffffff1673ffffffffffffffffffffffffffffffffffffffff1673ffffffffffffffffffffffffffffffffffffffff168152602001908152602001600020541115611728578180611724906140cf565b9250505b8080611733906140cf565b915050611669565b5080915050919050565b6060600180546117549061406c565b80601f01602080910402602001604051908101604052809291908181526020018280546117809061406c565b80156117cd5780601f106117a2576101008083540402835291602001916117cd565b820191906000526020600020905b8154815290600101906020018083116117b057829003601f168201915b5050505050905090565b60075481565b6117ef6117e86123bc565b838361280c565b5050565b6118046117fe6123bc565b8361247d565b611843576040517f08c379a000000000000000000000000000000000000000000000000000000000815260040161183a90613afa565b60405180910390fd5b61184f84848484612979565b50505050565b606060006118636006612054565b67ffffffffffffffff8111156118a2577f4e487b7100000000000000000000000000000000000000000000000000000000600052604160045260246000fd5b6040519080825280602002602001820160405280156118d05781602001602082028036833780820191505090505b5090506000600190505b6118e46006612054565b8110156119445780828281518110611925577f4e487b7100000000000000000000000000000000000000000000000000000000600052603260045260246000fd5b602002602001018181525050808061193c906140cf565b9150506118da565b508091505090565b6060611957826122ea565b60006119616129d5565b9050600081511161198157604051806020016040528060008152506119ac565b8061198b846129ec565b60405160200161199c929190613a10565b6040516020818303038152906040525b915050919050565b600b5481565b60086020528060005260406000206000915090508060000154908060010160009054906101000a900473ffffffffffffffffffffffffffffffffffffffff16908060020154908060030160009054906101000a900473ffffffffffffffffffffffffffffffffffffffff1690806004018054611a359061406c565b80601f0160208091040260200160405190810160405280929190818152602001828054611a619061406c565b8015611aae5780601f10611a8357610100808354040283529160200191611aae565b820191906000526020600020905b815481529060010190602001808311611a9157829003601f168201915b5050505050905085565b803373ffffffffffffffffffffffffffffffffffffffff166008600083815260200190815260200160002060010160009054906101000a900473ffffffffffffffffffffffffffffffffffffffff1673ffffffffffffffffffffffffffffffffffffffff1614611b5d576040517f08c379a0000000000000000000000000000000000000000000000000000000008152600401611b5490613cba565b60405180910390fd5b6000611b688361135c565b9050611b7383612b10565b600a6000848152602001908152602001600020600080820160009055600182016000905560028201600090556003820160006101000a81549073ffffffffffffffffffffffffffffffffffffffff0219169055600482016000611bd691906131e5565b5050600c60003373ffffffffffffffffffffffffffffffffffffffff1673ffffffffffffffffffffffffffffffffffffffff1681526020019081526020016000206000815480929190611c2890614042565b91905055507fd0d1bd91f40fdbfdf35852c1a2ffe7d7cc016b4de67d8d6491729cfbf25a80a58333604051611c5e929190613d75565b60405180910390a1505050565b803373ffffffffffffffffffffffffffffffffffffffff166008600083815260200190815260200160002060010160009054906101000a900473ffffffffffffffffffffffffffffffffffffffff1673ffffffffffffffffffffffffffffffffffffffff1614611d10576040517f08c379a0000000000000000000000000000000000000000000000000000000008152600401611d0790613cba565b60405180910390fd5b60006008600084815260200190815260200160002060030160009054906101000a900473ffffffffffffffffffffffffffffffffffffffff1690506000600860008581526020019081526020016000206002015490506000600860008681526020019081526020016000206002018190555060006008600086815260200190815260200160002060030160006101000a81548173ffffffffffffffffffffffffffffffffffffffff021916908373ffffffffffffffffffffffffffffffffffffffff160217905550816008600086815260200190815260200160002060010160006101000a81548173ffffffffffffffffffffffffffffffffffffffff021916908373ffffffffffffffffffffffffffffffffffffffff16021790555081600a600086815260200190815260200160002060030160006101000a81548173ffffffffffffffffffffffffffffffffffffffff021916908373ffffffffffffffffffffffffffffffffffffffff160217905550600c60003373ffffffffffffffffffffffffffffffffffffffff1673ffffffffffffffffffffffffffffffffffffffff1681526020019081526020016000206000815480929190611ed290614042565b9190505550600c60008373ffffffffffffffffffffffffffffffffffffffff1673ffffffffffffffffffffffffffffffffffffffff1681526020019081526020016000206000815480929190611f27906140cf565b91905055503373ffffffffffffffffffffffffffffffffffffffff166108fc829081150290604051600060405180830381858888f19350505050158015611f72573d6000803e3d6000fd5b50611f7e338386612512565b50505050565b6000600560008473ffffffffffffffffffffffffffffffffffffffff1673ffffffffffffffffffffffffffffffffffffffff16815260200190815260200160002060008373ffffffffffffffffffffffffffffffffffffffff1673ffffffffffffffffffffffffffffffffffffffff16815260200190815260200160002060009054906101000a900460ff16905092915050565b600960009054906101000a900473ffffffffffffffffffffffffffffffffffffffff1681565b6001816000016000828254019250508190555050565b600081600001549050919050565b600073ffffffffffffffffffffffffffffffffffffffff168273ffffffffffffffffffffffffffffffffffffffff1614156120d2576040517f08c379a00000000000000000000000000000000000000000000000000000000081526004016120c990613c9a565b60405180910390fd5b6120db81612c5e565b1561211b576040517f08c379a000000000000000000000000000000000000000000000000000000000815260040161211290613b5a565b60405180910390fd5b612129600083836001612c9f565b61213281612c5e565b15612172576040517f08c379a000000000000000000000000000000000000000000000000000000000815260040161216990613b5a565b60405180910390fd5b6001600360008473ffffffffffffffffffffffffffffffffffffffff1673ffffffffffffffffffffffffffffffffffffffff16815260200190815260200160002060008282540192505081905550816002600083815260200190815260200160002060006101000a81548173ffffffffffffffffffffffffffffffffffffffff021916908373ffffffffffffffffffffffffffffffffffffffff160217905550808273ffffffffffffffffffffffffffffffffffffffff16600073ffffffffffffffffffffffffffffffffffffffff167fddf252ad1be2c89b69c2b068fc378daa952ba7f163c4a11628f55a4df523b3ef60405160405180910390a461227c600083836001612ca5565b5050565b60007f01ffc9a7000000000000000000000000000000000000000000000000000000007bffffffffffffffffffffffffffffffffffffffffffffffffffffffff1916827bffffffffffffffffffffffffffffffffffffffffffffffffffffffff1916149050919050565b6122f381612c5e565b612332576040517f08c379a000000000000000000000000000000000000000000000000000000000815260040161232990613cda565b60405180910390fd5b50565b60008061234183612cab565b9050600073ffffffffffffffffffffffffffffffffffffffff168173ffffffffffffffffffffffffffffffffffffffff1614156123b3576040517f08c379a00000000000000000000000000000000000000000000000000000000081526004016123aa90613cda565b60405180910390fd5b80915050919050565b600033905090565b816004600083815260200190815260200160002060006101000a81548173ffffffffffffffffffffffffffffffffffffffff021916908373ffffffffffffffffffffffffffffffffffffffff160217905550808273ffffffffffffffffffffffffffffffffffffffff1661243783612335565b73ffffffffffffffffffffffffffffffffffffffff167f8c5be1e5ebec7d5bd14f71427d1e84f3dd0314c0f7b2291e5b200ac8c7c3b92560405160405180910390a45050565b60008061248983612335565b90508073ffffffffffffffffffffffffffffffffffffffff168473ffffffffffffffffffffffffffffffffffffffff1614806124cb57506124ca8185611f84565b5b8061250957508373ffffffffffffffffffffffffffffffffffffffff166124f184610af0565b73ffffffffffffffffffffffffffffffffffffffff16145b91505092915050565b8273ffffffffffffffffffffffffffffffffffffffff1661253282612335565b73ffffffffffffffffffffffffffffffffffffffff1614612588576040517f08c379a000000000000000000000000000000000000000000000000000000000815260040161257f90613b3a565b60405180910390fd5b600073ffffffffffffffffffffffffffffffffffffffff168273ffffffffffffffffffffffffffffffffffffffff1614156125f8576040517f08c379a00000000000000000000000000000000000000000000000000000000081526004016125ef90613b9a565b60405180910390fd5b6126058383836001612c9f565b8273ffffffffffffffffffffffffffffffffffffffff1661262582612335565b73ffffffffffffffffffffffffffffffffffffffff161461267b576040517f08c379a000000000000000000000000000000000000000000000000000000000815260040161267290613b3a565b60405180910390fd5b6004600082815260200190815260200160002060006101000a81549073ffffffffffffffffffffffffffffffffffffffff02191690556001600360008573ffffffffffffffffffffffffffffffffffffffff1673ffffffffffffffffffffffffffffffffffffffff168152602001908152602001600020600082825403925050819055506001600360008473ffffffffffffffffffffffffffffffffffffffff1673ffffffffffffffffffffffffffffffffffffffff16815260200190815260200160002060008282540192505081905550816002600083815260200190815260200160002060006101000a81548173ffffffffffffffffffffffffffffffffffffffff021916908373ffffffffffffffffffffffffffffffffffffffff160217905550808273ffffffffffffffffffffffffffffffffffffffff168473ffffffffffffffffffffffffffffffffffffffff167fddf252ad1be2c89b69c2b068fc378daa952ba7f163c4a11628f55a4df523b3ef60405160405180910390a46128078383836001612ca5565b505050565b8173ffffffffffffffffffffffffffffffffffffffff168373ffffffffffffffffffffffffffffffffffffffff16141561287b576040517f08c379a000000000000000000000000000000000000000000000000000000000815260040161287290613bba565b60405180910390fd5b80600560008573ffffffffffffffffffffffffffffffffffffffff1673ffffffffffffffffffffffffffffffffffffffff16815260200190815260200160002060008473ffffffffffffffffffffffffffffffffffffffff1673ffffffffffffffffffffffffffffffffffffffff16815260200190815260200160002060006101000a81548160ff0219169083151502179055508173ffffffffffffffffffffffffffffffffffffffff168373ffffffffffffffffffffffffffffffffffffffff167f17307eab39ab6107e8899845ad3d59bd9653f200f220920489ca2b5937696c318360405161296c9190613abd565b60405180910390a3505050565b612984848484612512565b61299084848484612ce8565b6129cf576040517f08c379a00000000000000000000000000000000000000000000000000000000081526004016129c690613b1a565b60405180910390fd5b50505050565b606060405180602001604052806000815250905090565b6060600060016129fb84612e7f565b01905060008167ffffffffffffffff811115612a40577f4e487b7100000000000000000000000000000000000000000000000000000000600052604160045260246000fd5b6040519080825280601f01601f191660200182016040528015612a725781602001600182028036833780820191505090505b509050600082602001820190505b600115612b05578080600190039150507f3031323334353637383961626364656600000000000000000000000000000000600a86061a8153600a8581612aef577f4e487b7100000000000000000000000000000000000000000000000000000000600052601260045260246000fd5b0494506000851415612b0057612b05565b612a80565b819350505050919050565b6000612b1b82612335565b9050612b2b816000846001612c9f565b612b3482612335565b90506004600083815260200190815260200160002060006101000a81549073ffffffffffffffffffffffffffffffffffffffff02191690556001600360008373ffffffffffffffffffffffffffffffffffffffff1673ffffffffffffffffffffffffffffffffffffffff168152602001908152602001600020600082825403925050819055506002600083815260200190815260200160002060006101000a81549073ffffffffffffffffffffffffffffffffffffffff021916905581600073ffffffffffffffffffffffffffffffffffffffff168273ffffffffffffffffffffffffffffffffffffffff167fddf252ad1be2c89b69c2b068fc378daa952ba7f163c4a11628f55a4df523b3ef60405160405180910390a4612c5a816000846001612ca5565b5050565b60008073ffffffffffffffffffffffffffffffffffffffff16612c8083612cab565b73ffffffffffffffffffffffffffffffffffffffff1614159050919050565b50505050565b50505050565b60006002600083815260200190815260200160002060009054906101000a900473ffffffffffffffffffffffffffffffffffffffff169050919050565b6000612d098473ffffffffffffffffffffffffffffffffffffffff166130b6565b15612e72578373ffffffffffffffffffffffffffffffffffffffff1663150b7a02612d326123bc565b8786866040518563ffffffff1660e01b8152600401612d549493929190613a4f565b602060405180830381600087803b158015612d6e57600080fd5b505af1925050508015612d9f57506040513d601f19601f82011682018060405250810190612d9c919061352d565b60015b612e22573d8060008114612dcf576040519150601f19603f3d011682016040523d82523d6000602084013e612dd4565b606091505b50600081511415612e1a576040517f08c379a0000000000000000000000000000000000000000000000000000000008152600401612e1190613b1a565b60405180910390fd5b805181602001fd5b63150b7a0260e01b7bffffffffffffffffffffffffffffffffffffffffffffffffffffffff1916817bffffffffffffffffffffffffffffffffffffffffffffffffffffffff191614915050612e77565b600190505b949350505050565b600080600090507a184f03e93ff9f4daa797ed6e38ed64bf6a1f0100000000000000008310612f03577a184f03e93ff9f4daa797ed6e38ed64bf6a1f0100000000000000008381612ef9577f4e487b7100000000000000000000000000000000000000000000000000000000600052601260045260246000fd5b0492506040810190505b6d04ee2d6d415b85acef81000000008310612f66576d04ee2d6d415b85acef81000000008381612f5c577f4e487b7100000000000000000000000000000000000000000000000000000000600052601260045260246000fd5b0492506020810190505b662386f26fc100008310612fbb57662386f26fc100008381612fb1577f4e487b7100000000000000000000000000000000000000000000000000000000600052601260045260246000fd5b0492506010810190505b6305f5e100831061300a576305f5e1008381613000577f4e487b7100000000000000000000000000000000000000000000000000000000600052601260045260246000fd5b0492506008810190505b612710831061305557612710838161304b577f4e487b7100000000000000000000000000000000000000000000000000000000600052601260045260246000fd5b0492506004810190505b6064831061309e5760648381613094577f4e487b7100000000000000000000000000000000000000000000000000000000600052601260045260246000fd5b0492506002810190505b600a83106130ad576001810190505b80915050919050565b6000808273ffffffffffffffffffffffffffffffffffffffff163b119050919050565b8280546130e59061406c565b90600052602060002090601f016020900481019282613107576000855561314e565b82601f1061312057803560ff191683800117855561314e565b8280016001018555821561314e579182015b8281111561314d578235825591602001919060010190613132565b5b50905061315b9190613225565b5090565b82805461316b9061406c565b90600052602060002090601f01602090048101928261318d57600085556131d4565b82601f106131a657805160ff19168380011785556131d4565b828001600101855582156131d4579182015b828111156131d35782518255916020019190600101906131b8565b5b5090506131e19190613225565b5090565b5080546131f19061406c565b6000825580601f106132035750613222565b601f0160209004906000526020600020908101906132219190613225565b5b50565b5b8082111561323e576000816000905550600101613226565b5090565b600061325561325084613e77565b613e52565b90508281526020810184848401111561326d57600080fd5b613278848285614000565b509392505050565b60008135905061328f81614663565b92915050565b6000813590506132a48161467a565b92915050565b6000813590506132b981614691565b92915050565b6000815190506132ce81614691565b92915050565b600082601f8301126132e557600080fd5b81356132f5848260208601613242565b91505092915050565b60008083601f84011261331057600080fd5b8235905067ffffffffffffffff81111561332957600080fd5b60208301915083600182028301111561334157600080fd5b9250929050565b600081359050613357816146a8565b92915050565b60006020828403121561336f57600080fd5b600061337d84828501613280565b91505092915050565b6000806040838503121561339957600080fd5b60006133a785828601613280565b92505060206133b885828601613280565b9150509250929050565b6000806000606084860312156133d757600080fd5b60006133e586828701613280565b93505060206133f686828701613280565b925050604061340786828701613348565b9150509250925092565b6000806000806080858703121561342757600080fd5b600061343587828801613280565b945050602061344687828801613280565b935050604061345787828801613348565b925050606085013567ffffffffffffffff81111561347457600080fd5b613480878288016132d4565b91505092959194509250565b6000806040838503121561349f57600080fd5b60006134ad85828601613280565b92505060206134be85828601613295565b9150509250929050565b600080604083850312156134db57600080fd5b60006134e985828601613280565b92505060206134fa85828601613348565b9150509250929050565b60006020828403121561351657600080fd5b6000613524848285016132aa565b91505092915050565b60006020828403121561353f57600080fd5b600061354d848285016132bf565b91505092915050565b60006020828403121561356857600080fd5b600061357684828501613348565b91505092915050565b60008060006040848603121561359457600080fd5b60006135a286828701613348565b935050602084013567ffffffffffffffff8111156135bf57600080fd5b6135cb868287016132fe565b92509250509250925092565b600080604083850312156135ea57600080fd5b60006135f885828601613348565b925050602061360985828601613348565b9150509250929050565b600061361f83836139f2565b60208301905092915050565b61363481613f8c565b82525050565b61364381613f7a565b82525050565b600061365482613eb8565b61365e8185613ee6565b935061366983613ea8565b8060005b8381101561369a5781516136818882613613565b975061368c83613ed9565b92505060018101905061366d565b5085935050505092915050565b6136b081613f9e565b82525050565b60006136c182613ec3565b6136cb8185613ef7565b93506136db81856020860161400f565b6136e4816141a5565b840191505092915050565b60006136fa82613ece565b6137048185613f08565b935061371481856020860161400f565b61371d816141a5565b840191505092915050565b600061373382613ece565b61373d8185613f19565b935061374d81856020860161400f565b80840191505092915050565b6000613766602d83613f08565b9150613771826141b6565b604082019050919050565b6000613789603283613f08565b915061379482614205565b604082019050919050565b60006137ac602583613f08565b91506137b782614254565b604082019050919050565b60006137cf601c83613f08565b91506137da826142a3565b602082019050919050565b60006137f2602b83613f08565b91506137fd826142cc565b604082019050919050565b6000613815602483613f08565b91506138208261431b565b604082019050919050565b6000613838601983613f08565b91506138438261436a565b602082019050919050565b600061385b602183613f08565b915061386682614393565b604082019050919050565b600061387e600d83613f08565b9150613889826143e2565b602082019050919050565b60006138a1602083613f08565b91506138ac8261440b565b602082019050919050565b60006138c4602283613f08565b91506138cf82614434565b604082019050919050565b60006138e7602983613f08565b91506138f282614483565b604082019050919050565b600061390a602a83613f08565b9150613915826144d2565b604082019050919050565b600061392d602083613f08565b915061393882614521565b602082019050919050565b6000613950601983613f08565b915061395b8261454a565b602082019050919050565b6000613973601883613f08565b915061397e82614573565b602082019050919050565b6000613996602183613f08565b91506139a18261459c565b604082019050919050565b60006139b9603d83613f08565b91506139c4826145eb565b604082019050919050565b60006139dc601b83613f08565b91506139e78261463a565b602082019050919050565b6139fb81613ff6565b82525050565b613a0a81613ff6565b82525050565b6000613a1c8285613728565b9150613a288284613728565b91508190509392505050565b6000602082019050613a49600083018461363a565b92915050565b6000608082019050613a64600083018761363a565b613a71602083018661363a565b613a7e6040830185613a01565b8181036060830152613a9081846136b6565b905095945050505050565b60006020820190508181036000830152613ab58184613649565b905092915050565b6000602082019050613ad260008301846136a7565b92915050565b60006020820190508181036000830152613af281846136ef565b905092915050565b60006020820190508181036000830152613b1381613759565b9050919050565b60006020820190508181036000830152613b338161377c565b9050919050565b60006020820190508181036000830152613b538161379f565b9050919050565b60006020820190508181036000830152613b73816137c2565b9050919050565b60006020820190508181036000830152613b93816137e5565b9050919050565b60006020820190508181036000830152613bb381613808565b9050919050565b60006020820190508181036000830152613bd38161382b565b9050919050565b60006020820190508181036000830152613bf38161384e565b9050919050565b60006020820190508181036000830152613c1381613871565b9050919050565b60006020820190508181036000830152613c3381613894565b9050919050565b60006020820190508181036000830152613c53816138b7565b9050919050565b60006020820190508181036000830152613c73816138da565b9050919050565b60006020820190508181036000830152613c93816138fd565b9050919050565b60006020820190508181036000830152613cb381613920565b9050919050565b60006020820190508181036000830152613cd381613943565b9050919050565b60006020820190508181036000830152613cf381613966565b9050919050565b60006020820190508181036000830152613d1381613989565b9050919050565b60006020820190508181036000830152613d33816139ac565b9050919050565b60006020820190508181036000830152613d53816139cf565b9050919050565b6000602082019050613d6f6000830184613a01565b92915050565b6000604082019050613d8a6000830185613a01565b613d97602083018461363a565b9392505050565b600060a082019050613db36000830188613a01565b613dc0602083018761362b565b613dcd6040830186613a01565b613dda606083018561362b565b8181036080830152613dec81846136ef565b90509695505050505050565b600060a082019050613e0d6000830188613a01565b613e1a6020830187613a01565b613e276040830186613a01565b613e34606083018561362b565b8181036080830152613e4681846136ef565b90509695505050505050565b6000613e5c613e6d565b9050613e68828261409e565b919050565b6000604051905090565b600067ffffffffffffffff821115613e9257613e91614176565b5b613e9b826141a5565b9050602081019050919050565b6000819050602082019050919050565b600081519050919050565b600081519050919050565b600081519050919050565b6000602082019050919050565b600082825260208201905092915050565b600082825260208201905092915050565b600082825260208201905092915050565b600081905092915050565b6000613f2f82613ff6565b9150613f3a83613ff6565b9250827fffffffffffffffffffffffffffffffffffffffffffffffffffffffffffffffff03821115613f6f57613f6e614118565b5b828201905092915050565b6000613f8582613fd6565b9050919050565b6000613f9782613fd6565b9050919050565b60008115159050919050565b60007fffffffff0000000000000000000000000000000000000000000000000000000082169050919050565b600073ffffffffffffffffffffffffffffffffffffffff82169050919050565b6000819050919050565b82818337600083830152505050565b60005b8381101561402d578082015181840152602081019050614012565b8381111561403c576000848401525b50505050565b600061404d82613ff6565b9150600082141561406157614060614118565b5b600182039050919050565b6000600282049050600182168061408457607f821691505b6020821081141561409857614097614147565b5b50919050565b6140a7826141a5565b810181811067ffffffffffffffff821117156140c6576140c5614176565b5b80604052505050565b60006140da82613ff6565b91507fffffffffffffffffffffffffffffffffffffffffffffffffffffffffffffffff82141561410d5761410c614118565b5b600182019050919050565b7f4e487b7100000000000000000000000000000000000000000000000000000000600052601160045260246000fd5b7f4e487b7100000000000000000000000000000000000000000000000000000000600052602260045260246000fd5b7f4e487b7100000000000000000000000000000000000000000000000000000000600052604160045260246000fd5b6000601f19601f8301169050919050565b7f4552433732313a2063616c6c6572206973206e6f7420746f6b656e206f776e6560008201527f72206f7220617070726f76656400000000000000000000000000000000000000602082015250565b7f4552433732313a207472616e7366657220746f206e6f6e20455243373231526560008201527f63656976657220696d706c656d656e7465720000000000000000000000000000602082015250565b7f4552433732313a207472616e736665722066726f6d20696e636f72726563742060008201527f6f776e6572000000000000000000000000000000000000000000000000000000602082015250565b7f4552433732313a20746f6b656e20616c7265616479206d696e74656400000000600082015250565b7f426964206d75737420626520686967686572207468616e2063757272656e742060008201527f6869676865737420626964000000000000000000000000000000000000000000602082015250565b7f4552433732313a207472616e7366657220746f20746865207a65726f2061646460008201527f7265737300000000000000000000000000000000000000000000000000000000602082015250565b7f4552433732313a20617070726f766520746f2063616c6c657200000000000000600082015250565b7f596f752063616e6e6f7420776974686472617720612077696e6e696e6720626960008201527f6400000000000000000000000000000000000000000000000000000000000000602082015250565b7f4e6f417373657445786973747300000000000000000000000000000000000000600082015250565b7f596f752063616e6e6f7420626964206f6e20796f7572206f776e206173736574600082015250565b7f596f752063616e6e6f7420776974686472617720796f7572206f776e2061737360008201527f6574000000000000000000000000000000000000000000000000000000000000602082015250565b7f4552433732313a2061646472657373207a65726f206973206e6f74206120766160008201527f6c6964206f776e65720000000000000000000000000000000000000000000000602082015250565b7f4552433732313a2062616c616e636520717565727920666f7220746865207a6560008201527f726f206164647265737300000000000000000000000000000000000000000000602082015250565b7f4552433732313a206d696e7420746f20746865207a65726f2061646472657373600082015250565b7f596f7520646f206e6f74206f776e207468697320617373657400000000000000600082015250565b7f4552433732313a20696e76616c696420746f6b656e2049440000000000000000600082015250565b7f4552433732313a20617070726f76616c20746f2063757272656e74206f776e6560008201527f7200000000000000000000000000000000000000000000000000000000000000602082015250565b7f4552433732313a20617070726f76652063616c6c6572206973206e6f7420746f60008201527f6b656e206f776e6572206f7220617070726f76656420666f7220616c6c000000602082015250565b7f596f752068617665206e6f74206d616465206120626964207965740000000000600082015250565b61466c81613f7a565b811461467757600080fd5b50565b61468381613f9e565b811461468e57600080fd5b50565b61469a81613faa565b81146146a557600080fd5b50565b6146b181613ff6565b81146146bc57600080fd5b5056fea2646970667358221220e8af1a86ee432cd48d85ce5704be8390a08fbafd30dcb2cc09b13180e2ed1dac64736f6c63430008040033",
  "immutableReferences": {},
  "source": "// SPDX-License-Identifier: MIT\r\npragma solidity ^0.8.0;\r\n\r\nimport \"@openzeppelin/contracts/token/ERC721/ERC721.sol\";\r\nimport \"@openzeppelin/contracts/utils/Counters.sol\";\r\n\r\n\r\ncontract ChronosCapsuleNFT is ERC721 {\r\n    using Counters for Counters.Counter;\r\n    Counters.Counter private _tokenIds;\r\n\r\n    struct Asset {\r\n        uint256 basePrice;\r\n        address payable owner;\r\n        uint256 highestBid;\r\n        address payable highestBidder;\r\n        string urlOfAsset;\r\n        mapping(address => uint256) bids;\r\n    }\r\n\r\n    struct AssetDetails {\r\n        uint256 tokenId;\r\n        uint256 basePrice;\r\n        uint256 highestBid;\r\n        address payable owner;\r\n        string urlOfAsset;\r\n    }\r\n\r\n    uint256 public tokenCount;\r\n    mapping(uint256 => Asset) public assets;\r\n    address public administrator;\r\n    mapping(uint256 => AssetDetails) public assetMap;\r\n    uint256 public assetsCount;\r\n    mapping (address => uint256) private countOfOwnedTokens;\r\n \r\n\r\n    constructor() public ERC721(\"ChronosCapsuleNFT\", \"CCNFT\") {\r\n        administrator = msg.sender;\r\n    }\r\n\r\n    event AssetCancelled(uint256 tokenId, address owner);\r\n\r\n    // Modifiers\r\n\r\n     modifier bidHigherThanCurrentBid(uint256 _tokenId) {\r\n        require(msg.value > assets[_tokenId].highestBid, \"Bid must be higher than current highest bid\");\r\n        _;\r\n    }\r\n\r\n     modifier ownerValidation(uint256 _tokenId) {\r\n        require(assets[_tokenId].owner == msg.sender, \"You do not own this asset\");\r\n        _;\r\n    }\r\n\r\n    modifier notOwner(uint256 _tokenId) {\r\n        require(assets[_tokenId].owner != msg.sender, \"You cannot bid on your own asset\");\r\n        _;\r\n    }\r\n\r\n\r\n    function balanceOf() public view returns (uint256) {\r\n        require(msg.sender != address(0), \"ERC721: balance query for the zero address\");\r\n\r\n        return countOfOwnedTokens[msg.sender];\r\n    }\r\n\r\n     function tokenizeAsset(uint256 basePrice,string calldata urlOfAsset) public {\r\n        _tokenIds.increment();\r\n        uint256 newItemId = _tokenIds.current();\r\n        Asset storage newAsset = assets[newItemId];\r\n        newAsset.basePrice = basePrice;\r\n        newAsset.owner = payable(msg.sender);\r\n        newAsset.highestBid = basePrice;\r\n        newAsset.highestBidder = payable(address(0));\r\n        newAsset.urlOfAsset = urlOfAsset;\r\n        assetMap[tokenCount] = AssetDetails(tokenCount,basePrice,basePrice,payable(msg.sender),urlOfAsset);\r\n        _mint(msg.sender, newItemId);\r\n        countOfOwnedTokens[msg.sender]++;\r\n        tokenCount=tokenCount+1;\r\n    }\r\n\r\n\r\n\r\n    function getAllTokenIds() public view returns (uint256[] memory) {\r\n    uint256[] memory tokenIds = new uint256[](_tokenIds.current());\r\n    for (uint256 i = 1; i < _tokenIds.current(); i++) {\r\n        tokenIds[i] = i;\r\n    }\r\n    return tokenIds;\r\n    }\r\n\r\n    function ownerOf(uint256 tokenId) public view override returns (address) {\r\n        address owner = assetMap[tokenId].owner;\r\n        require(owner != address(0), \"NoAssetExists\");\r\n        return owner;\r\n    }\r\n\r\n    function getTokenHighestBid(uint256 _tokenId) public view returns (uint256) {\r\n    return assets[_tokenId].highestBid;\r\n}\r\n\r\n    function bid(uint256 _tokenId) public payable notOwner(_tokenId){\r\n        require(msg.value > assets[_tokenId].highestBid, \"Bid must be higher than current highest bid\");\r\n        require(assets[_tokenId].owner != msg.sender, \"You cannot bid on your own asset\");\r\n\r\n        if (assets[_tokenId].highestBid != 0) {\r\n            assets[_tokenId].bids[assets[_tokenId].highestBidder] += assets[_tokenId].highestBid;\r\n        }\r\n        assets[_tokenId].highestBid = msg.value;\r\n        assetMap[_tokenId].highestBid = msg.value;\r\n        assets[_tokenId].highestBidder = payable(msg.sender);\r\n    }\r\n\r\n        function changeAssetValue(uint256 _tokenId, uint256 _newPrice) public ownerValidation(_tokenId) {\r\n        assets[_tokenId].basePrice = _newPrice;\r\n        assetMap[_tokenId].basePrice = _newPrice;\r\n    }\r\n\r\n\r\n    function withdrawBid(uint256 _tokenId) public {\r\n        require(msg.sender != assets[_tokenId].highestBidder, \"You cannot withdraw a winning bid\");\r\n        require(assets[_tokenId].owner != msg.sender, \"You cannot withdraw your own asset\");\r\n        uint256 bidAmount = assets[_tokenId].bids[msg.sender];\r\n        require(bidAmount > 0, \"You have not made a bid yet\");\r\n        assets[_tokenId].bids[msg.sender] = 0;\r\n        payable(msg.sender).transfer(bidAmount);\r\n    }\r\n\r\n\r\n    function sell(uint256 _tokenId) public ownerValidation(_tokenId){\r\n    address payable recipient = payable(assets[_tokenId].highestBidder);\r\n        uint256 amount = assets[_tokenId].highestBid;\r\n        assets[_tokenId].highestBid = 0;\r\n        assets[_tokenId].highestBidder = payable(address(0));\r\n        assets[_tokenId].owner = recipient;\r\n        assetMap[_tokenId].owner = recipient;\r\n        countOfOwnedTokens[msg.sender]--;\r\n        countOfOwnedTokens[recipient]++;\r\n\r\n        payable(msg.sender).transfer(amount);\r\n        _transfer(msg.sender, recipient, _tokenId);\r\n    }\r\n\r\n    function getBidCount(uint256 _tokenId) public view returns (uint256) {\r\n        uint256 count = 0;\r\n        for (uint256 i = 0; i < assets[_tokenId].highestBid; i++) {\r\n            if (assets[_tokenId].bids[assets[_tokenId].highestBidder] > 0) {\r\n                count++;\r\n            }\r\n        }\r\n        return count;\r\n    }\r\n\r\n    function cancelAsset(uint256 _tokenId) public  ownerValidation(_tokenId){\r\n\r\n    address tokenOwner = ownerOf(_tokenId);\r\n    _burn(_tokenId);\r\n    delete assetMap[_tokenId];\r\n    countOfOwnedTokens[msg.sender]--;\r\n    emit AssetCancelled(_tokenId, msg.sender);\r\n}  \r\n}",
  "sourcePath": "D:\\ChronosCapsule-DApp\\ChronosCapsule-Contract\\contracts\\ChronosCapsuleNFT.sol",
  "compiler": {
    "name": "solc",
    "version": "0.8.4+commit.c7e474f2.Emscripten.clang"
  },
  "schemaVersion": "3.4.13",
  "updatedAt": "2023-05-13T22:54:39.882Z",
  "networkType": "ethereum",
  "devdoc": {
    "kind": "dev",
    "methods": {
      "approve(address,uint256)": {
        "details": "See {IERC721-approve}."
      },
      "balanceOf(address)": {
        "details": "See {IERC721-balanceOf}."
      },
      "getApproved(uint256)": {
        "details": "See {IERC721-getApproved}."
      },
      "isApprovedForAll(address,address)": {
        "details": "See {IERC721-isApprovedForAll}."
      },
      "name()": {
        "details": "See {IERC721Metadata-name}."
      },
      "ownerOf(uint256)": {
        "details": "See {IERC721-ownerOf}."
      },
      "safeTransferFrom(address,address,uint256)": {
        "details": "See {IERC721-safeTransferFrom}."
      },
      "safeTransferFrom(address,address,uint256,bytes)": {
        "details": "See {IERC721-safeTransferFrom}."
      },
      "setApprovalForAll(address,bool)": {
        "details": "See {IERC721-setApprovalForAll}."
      },
      "supportsInterface(bytes4)": {
        "details": "See {IERC165-supportsInterface}."
      },
      "symbol()": {
        "details": "See {IERC721Metadata-symbol}."
      },
      "tokenURI(uint256)": {
        "details": "See {IERC721Metadata-tokenURI}."
      },
      "transferFrom(address,address,uint256)": {
        "details": "See {IERC721-transferFrom}."
      }
    },
    "version": 1
  },
  "userdoc": {
    "kind": "user",
    "methods": {},
    "version": 1
  }
}