{
  "contractName": "ChronosCapsuleNFT",
  "abi": [
    {
      "inputs": [],
      "stateMutability": "nonpayable",
      "type": "constructor"
    },
    {
      "anonymous": false,
      "inputs": [
        {
          "indexed": true,
          "internalType": "address",
          "name": "owner",
          "type": "address"
        },
        {
          "indexed": true,
          "internalType": "address",
          "name": "approved",
          "type": "address"
        },
        {
          "indexed": true,
          "internalType": "uint256",
          "name": "tokenId",
          "type": "uint256"
        }
      ],
      "name": "Approval",
      "type": "event"
    },
    {
      "anonymous": false,
      "inputs": [
        {
          "indexed": true,
          "internalType": "address",
          "name": "owner",
          "type": "address"
        },
        {
          "indexed": true,
          "internalType": "address",
          "name": "operator",
          "type": "address"
        },
        {
          "indexed": false,
          "internalType": "bool",
          "name": "approved",
          "type": "bool"
        }
      ],
      "name": "ApprovalForAll",
      "type": "event"
    },
    {
      "anonymous": false,
      "inputs": [
        {
          "indexed": false,
          "internalType": "uint256",
          "name": "tokenId",
          "type": "uint256"
        },
        {
          "indexed": false,
          "internalType": "address",
          "name": "owner",
          "type": "address"
        }
      ],
      "name": "AssetCancelled",
      "type": "event"
    },
    {
      "anonymous": false,
      "inputs": [
        {
          "indexed": true,
          "internalType": "address",
          "name": "from",
          "type": "address"
        },
        {
          "indexed": true,
          "internalType": "address",
          "name": "to",
          "type": "address"
        },
        {
          "indexed": true,
          "internalType": "uint256",
          "name": "tokenId",
          "type": "uint256"
        }
      ],
      "name": "Transfer",
      "type": "event"
    },
    {
      "inputs": [],
      "name": "administrator",
      "outputs": [
        {
          "internalType": "address",
          "name": "",
          "type": "address"
        }
      ],
      "stateMutability": "view",
      "type": "function",
      "constant": true
    },
    {
      "inputs": [
        {
          "internalType": "address",
          "name": "to",
          "type": "address"
        },
        {
          "internalType": "uint256",
          "name": "tokenId",
          "type": "uint256"
        }
      ],
      "name": "approve",
      "outputs": [],
      "stateMutability": "nonpayable",
      "type": "function"
    },
    {
      "inputs": [
        {
          "internalType": "uint256",
          "name": "",
          "type": "uint256"
        }
      ],
      "name": "assetMap",
      "outputs": [
        {
          "internalType": "uint256",
          "name": "tokenId",
          "type": "uint256"
        },
        {
          "internalType": "uint256",
          "name": "basePrice",
          "type": "uint256"
        },
        {
          "internalType": "uint256",
          "name": "highestBid",
          "type": "uint256"
        },
        {
          "internalType": "address payable",
          "name": "owner",
          "type": "address"
        },
        {
          "internalType": "string",
          "name": "urlOfAsset",
          "type": "string"
        }
      ],
      "stateMutability": "view",
      "type": "function",
      "constant": true
    },
    {
      "inputs": [
        {
          "internalType": "uint256",
          "name": "",
          "type": "uint256"
        }
      ],
      "name": "assets",
      "outputs": [
        {
          "internalType": "uint256",
          "name": "basePrice",
          "type": "uint256"
        },
        {
          "internalType": "address payable",
          "name": "owner",
          "type": "address"
        },
        {
          "internalType": "uint256",
          "name": "highestBid",
          "type": "uint256"
        },
        {
          "internalType": "address payable",
          "name": "highestBidder",
          "type": "address"
        },
        {
          "internalType": "string",
          "name": "urlOfAsset",
          "type": "string"
        }
      ],
      "stateMutability": "view",
      "type": "function",
      "constant": true
    },
    {
      "inputs": [],
      "name": "assetsCount",
      "outputs": [
        {
          "internalType": "uint256",
          "name": "",
          "type": "uint256"
        }
      ],
      "stateMutability": "view",
      "type": "function",
      "constant": true
    },
    {
      "inputs": [
        {
          "internalType": "uint256",
          "name": "tokenId",
          "type": "uint256"
        }
      ],
      "name": "getApproved",
      "outputs": [
        {
          "internalType": "address",
          "name": "",
          "type": "address"
        }
      ],
      "stateMutability": "view",
      "type": "function",
      "constant": true
    },
    {
      "inputs": [
        {
          "internalType": "address",
          "name": "owner",
          "type": "address"
        },
        {
          "internalType": "address",
          "name": "operator",
          "type": "address"
        }
      ],
      "name": "isApprovedForAll",
      "outputs": [
        {
          "internalType": "bool",
          "name": "",
          "type": "bool"
        }
      ],
      "stateMutability": "view",
      "type": "function",
      "constant": true
    },
    {
      "inputs": [],
      "name": "name",
      "outputs": [
        {
          "internalType": "string",
          "name": "",
          "type": "string"
        }
      ],
      "stateMutability": "view",
      "type": "function",
      "constant": true
    },
    {
      "inputs": [
        {
          "internalType": "address",
          "name": "from",
          "type": "address"
        },
        {
          "internalType": "address",
          "name": "to",
          "type": "address"
        },
        {
          "internalType": "uint256",
          "name": "tokenId",
          "type": "uint256"
        }
      ],
      "name": "safeTransferFrom",
      "outputs": [],
      "stateMutability": "nonpayable",
      "type": "function"
    },
    {
      "inputs": [
        {
          "internalType": "address",
          "name": "from",
          "type": "address"
        },
        {
          "internalType": "address",
          "name": "to",
          "type": "address"
        },
        {
          "internalType": "uint256",
          "name": "tokenId",
          "type": "uint256"
        },
        {
          "internalType": "bytes",
          "name": "data",
          "type": "bytes"
        }
      ],
      "name": "safeTransferFrom",
      "outputs": [],
      "stateMutability": "nonpayable",
      "type": "function"
    },
    {
      "inputs": [
        {
          "internalType": "address",
          "name": "operator",
          "type": "address"
        },
        {
          "internalType": "bool",
          "name": "approved",
          "type": "bool"
        }
      ],
      "name": "setApprovalForAll",
      "outputs": [],
      "stateMutability": "nonpayable",
      "type": "function"
    },
    {
      "inputs": [
        {
          "internalType": "bytes4",
          "name": "interfaceId",
          "type": "bytes4"
        }
      ],
      "name": "supportsInterface",
      "outputs": [
        {
          "internalType": "bool",
          "name": "",
          "type": "bool"
        }
      ],
      "stateMutability": "view",
      "type": "function",
      "constant": true
    },
    {
      "inputs": [],
      "name": "symbol",
      "outputs": [
        {
          "internalType": "string",
          "name": "",
          "type": "string"
        }
      ],
      "stateMutability": "view",
      "type": "function",
      "constant": true
    },
    {
      "inputs": [],
      "name": "tokenCount",
      "outputs": [
        {
          "internalType": "uint256",
          "name": "",
          "type": "uint256"
        }
      ],
      "stateMutability": "view",
      "type": "function",
      "constant": true
    },
    {
      "inputs": [
        {
          "internalType": "uint256",
          "name": "tokenId",
          "type": "uint256"
        }
      ],
      "name": "tokenURI",
      "outputs": [
        {
          "internalType": "string",
          "name": "",
          "type": "string"
        }
      ],
      "stateMutability": "view",
      "type": "function",
      "constant": true
    },
    {
      "inputs": [
        {
          "internalType": "address",
          "name": "from",
          "type": "address"
        },
        {
          "internalType": "address",
          "name": "to",
          "type": "address"
        },
        {
          "internalType": "uint256",
          "name": "tokenId",
          "type": "uint256"
        }
      ],
      "name": "transferFrom",
      "outputs": [],
      "stateMutability": "nonpayable",
      "type": "function"
    },
    {
      "inputs": [
        {
          "internalType": "address",
          "name": "owner",
          "type": "address"
        }
      ],
      "name": "balanceOf",
      "outputs": [
        {
          "internalType": "uint256",
          "name": "",
          "type": "uint256"
        }
      ],
      "stateMutability": "view",
      "type": "function",
      "constant": true
    },
    {
      "inputs": [],
      "name": "balanceOf",
      "outputs": [
        {
          "internalType": "uint256",
          "name": "",
          "type": "uint256"
        }
      ],
      "stateMutability": "view",
      "type": "function",
      "constant": true
    },
    {
      "inputs": [
        {
          "internalType": "uint256",
          "name": "basePrice",
          "type": "uint256"
        },
        {
          "internalType": "string",
          "name": "urlOfAsset",
          "type": "string"
        }
      ],
      "name": "tokenizeAsset",
      "outputs": [],
      "stateMutability": "nonpayable",
      "type": "function"
    },
    {
      "inputs": [],
      "name": "getAllTokenIds",
      "outputs": [
        {
          "internalType": "uint256[]",
          "name": "",
          "type": "uint256[]"
        }
      ],
      "stateMutability": "view",
      "type": "function",
      "constant": true
    },
    {
      "inputs": [
        {
          "internalType": "uint256",
          "name": "tokenId",
          "type": "uint256"
        }
      ],
      "name": "ownerOf",
      "outputs": [
        {
          "internalType": "address",
          "name": "",
          "type": "address"
        }
      ],
      "stateMutability": "view",
      "type": "function",
      "constant": true
    },
    {
      "inputs": [
        {
          "internalType": "uint256",
          "name": "_tokenId",
          "type": "uint256"
        }
      ],
      "name": "getTokenHighestBid",
      "outputs": [
        {
          "internalType": "uint256",
          "name": "",
          "type": "uint256"
        }
      ],
      "stateMutability": "view",
      "type": "function",
      "constant": true
    },
    {
      "inputs": [
        {
          "internalType": "uint256",
          "name": "_tokenId",
          "type": "uint256"
        }
      ],
      "name": "bid",
      "outputs": [],
      "stateMutability": "payable",
      "type": "function",
      "payable": true
    },
    {
      "inputs": [
        {
          "internalType": "uint256",
          "name": "_tokenId",
          "type": "uint256"
        },
        {
          "internalType": "uint256",
          "name": "_newPrice",
          "type": "uint256"
        }
      ],
      "name": "changeAssetValue",
      "outputs": [],
      "stateMutability": "nonpayable",
      "type": "function"
    },
    {
      "inputs": [
        {
          "internalType": "uint256",
          "name": "_tokenId",
          "type": "uint256"
        }
      ],
      "name": "withdrawBid",
      "outputs": [],
      "stateMutability": "nonpayable",
      "type": "function"
    },
    {
      "inputs": [
        {
          "internalType": "uint256",
          "name": "_tokenId",
          "type": "uint256"
        }
      ],
      "name": "sell",
      "outputs": [],
      "stateMutability": "nonpayable",
      "type": "function"
    },
    {
      "inputs": [
        {
          "internalType": "uint256",
          "name": "_tokenId",
          "type": "uint256"
        }
      ],
      "name": "getBidCount",
      "outputs": [
        {
          "internalType": "uint256",
          "name": "",
          "type": "uint256"
        }
      ],
      "stateMutability": "view",
      "type": "function",
      "constant": true
    },
    {
      "inputs": [
        {
          "internalType": "uint256",
          "name": "_tokenId",
          "type": "uint256"
        }
      ],
      "name": "cancelAsset",
      "outputs": [],
      "stateMutability": "nonpayable",
      "type": "function"
    }
  ],
  "bytecode": "0x60806040523480156200001157600080fd5b506040518060400160405280601181526020017f4368726f6e6f7343617073756c654e46540000000000000000000000000000008152506040518060400160405280600581526020017f43434e465400000000000000000000000000000000000000000000000000000081525081600090816200008f919062000365565b508060019081620000a1919062000365565b50505033600960006101000a81548173ffffffffffffffffffffffffffffffffffffffff021916908373ffffffffffffffffffffffffffffffffffffffff1602179055506200044c565b600081519050919050565b7f4e487b7100000000000000000000000000000000000000000000000000000000600052604160045260246000fd5b7f4e487b7100000000000000000000000000000000000000000000000000000000600052602260045260246000fd5b600060028204905060018216806200016d57607f821691505b60208210810362000183576200018262000125565b5b50919050565b60008190508160005260206000209050919050565b60006020601f8301049050919050565b600082821b905092915050565b600060088302620001ed7fffffffffffffffffffffffffffffffffffffffffffffffffffffffffffffffff82620001ae565b620001f98683620001ae565b95508019841693508086168417925050509392505050565b6000819050919050565b6000819050919050565b600062000246620002406200023a8462000211565b6200021b565b62000211565b9050919050565b6000819050919050565b620002628362000225565b6200027a62000271826200024d565b848454620001bb565b825550505050565b600090565b6200029162000282565b6200029e81848462000257565b505050565b5b81811015620002c657620002ba60008262000287565b600181019050620002a4565b5050565b601f8211156200031557620002df8162000189565b620002ea846200019e565b81016020851015620002fa578190505b6200031262000309856200019e565b830182620002a3565b50505b505050565b600082821c905092915050565b60006200033a600019846008026200031a565b1980831691505092915050565b600062000355838362000327565b9150826002028217905092915050565b6200037082620000eb565b67ffffffffffffffff8111156200038c576200038b620000f6565b5b62000398825462000154565b620003a5828285620002ca565b600060209050601f831160018114620003dd5760008415620003c8578287015190505b620003d4858262000347565b86555062000444565b601f198416620003ed8662000189565b60005b828110156200041757848901518255600182019150602085019450602081019050620003f0565b8683101562000437578489015162000433601f89168262000327565b8355505b6001600288020188555050505b505050505050565b614785806200045c6000396000f3fe6080604052600436106101b65760003560e01c8063722713f7116100ec578063c87b56dd1161008a578063d4330aed11610064578063d4330aed1461064e578063e4849b3214610677578063e985e9c5146106a0578063f53d0a8e146106dd576101b6565b8063c87b56dd146105a5578063cd9df190146105e2578063cf35bdd01461060d576101b6565b80639f181b5e116100c65780639f181b5e146104fd578063a22cb46514610528578063b88d4fde14610551578063bdbed7221461057a576101b6565b8063722713f71461046a578063744d34111461049557806395d89b41146104d2576101b6565b80631e56afe911610159578063454a2ab311610133578063454a2ab3146103ab5780636352211e146103c75780636a17626c1461040457806370a082311461042d576101b6565b80631e56afe91461031c57806323b872dd1461035957806342842e0e14610382576101b6565b8063081812fc11610195578063081812fc1461024c578063095ea7b3146102895780630eaaf4c8146102b2578063129f9008146102db576101b6565b80629f4d22146101bb57806301ffc9a7146101e457806306fdde0314610221575b600080fd5b3480156101c757600080fd5b506101e260048036038101906101dd9190612f92565b610708565b005b3480156101f057600080fd5b5061020b6004803603810190610206919061304a565b610975565b6040516102189190613092565b60405180910390f35b34801561022d57600080fd5b50610236610a57565b604051610243919061313d565b60405180910390f35b34801561025857600080fd5b50610273600480360381019061026e919061315f565b610ae9565b60405161028091906131cd565b60405180910390f35b34801561029557600080fd5b506102b060048036038101906102ab9190613214565b610b2f565b005b3480156102be57600080fd5b506102d960048036038101906102d4919061315f565b610c46565b005b3480156102e757600080fd5b5061030260048036038101906102fd919061315f565b610ecd565b604051610313959493929190613284565b60405180910390f35b34801561032857600080fd5b50610343600480360381019061033e919061315f565b610fab565b60405161035091906132de565b60405180910390f35b34801561036557600080fd5b50610380600480360381019061037b91906132f9565b610fcb565b005b34801561038e57600080fd5b506103a960048036038101906103a491906132f9565b61102b565b005b6103c560048036038101906103c0919061315f565b61104b565b005b3480156103d357600080fd5b506103ee60048036038101906103e9919061315f565b611350565b6040516103fb91906131cd565b60405180910390f35b34801561041057600080fd5b5061042b6004803603810190610426919061334c565b611404565b005b34801561043957600080fd5b50610454600480360381019061044f919061338c565b6114e4565b60405161046191906132de565b60405180910390f35b34801561047657600080fd5b5061047f61159b565b60405161048c91906132de565b60405180910390f35b3480156104a157600080fd5b506104bc60048036038101906104b7919061315f565b611650565b6040516104c991906132de565b60405180910390f35b3480156104de57600080fd5b506104e7611736565b6040516104f4919061313d565b60405180910390f35b34801561050957600080fd5b506105126117c8565b60405161051f91906132de565b60405180910390f35b34801561053457600080fd5b5061054f600480360381019061054a91906133e5565b6117ce565b005b34801561055d57600080fd5b5061057860048036038101906105739190613555565b6117e4565b005b34801561058657600080fd5b5061058f611846565b60405161059c9190613696565b60405180910390f35b3480156105b157600080fd5b506105cc60048036038101906105c7919061315f565b6118f1565b6040516105d9919061313d565b60405180910390f35b3480156105ee57600080fd5b506105f7611959565b60405161060491906132de565b60405180910390f35b34801561061957600080fd5b50610634600480360381019061062f919061315f565b61195f565b6040516106459594939291906136b8565b60405180910390f35b34801561065a57600080fd5b506106756004803603810190610670919061315f565b611a5d565b005b34801561068357600080fd5b5061069e6004803603810190610699919061315f565b611c10565b005b3480156106ac57600080fd5b506106c760048036038101906106c29190613712565b611e7f565b6040516106d49190613092565b60405180910390f35b3480156106e957600080fd5b506106f2611f13565b6040516106ff91906131cd565b60405180910390f35b6107126006611f39565b600061071e6006611f4f565b90506000600860008381526020019081526020016000209050848160000181905550338160010160006101000a81548173ffffffffffffffffffffffffffffffffffffffff021916908373ffffffffffffffffffffffffffffffffffffffff16021790555084816002018190555060008160030160006101000a81548173ffffffffffffffffffffffffffffffffffffffff021916908373ffffffffffffffffffffffffffffffffffffffff16021790555083838260040191826107e3929190613969565b506040518060a0016040528060075481526020018681526020018681526020013373ffffffffffffffffffffffffffffffffffffffff16815260200185858080601f016020809104026020016040519081016040528093929190818152602001838380828437600081840152601f19601f82011690508083019250505050505050815250600a6000600754815260200190815260200160002060008201518160000155602082015181600101556040820151816002015560608201518160030160006101000a81548173ffffffffffffffffffffffffffffffffffffffff021916908373ffffffffffffffffffffffffffffffffffffffff16021790555060808201518160040190816108f69190613a39565b509050506109043383611f5d565b600c60003373ffffffffffffffffffffffffffffffffffffffff1673ffffffffffffffffffffffffffffffffffffffff168152602001908152602001600020600081548092919061095490613b3a565b919050555060016007546109689190613b82565b6007819055505050505050565b60007f80ac58cd000000000000000000000000000000000000000000000000000000007bffffffffffffffffffffffffffffffffffffffffffffffffffffffff1916827bffffffffffffffffffffffffffffffffffffffffffffffffffffffff19161480610a4057507f5b5e139f000000000000000000000000000000000000000000000000000000007bffffffffffffffffffffffffffffffffffffffffffffffffffffffff1916827bffffffffffffffffffffffffffffffffffffffffffffffffffffffff1916145b80610a505750610a4f8261217a565b5b9050919050565b606060008054610a669061378c565b80601f0160208091040260200160405190810160405280929190818152602001828054610a929061378c565b8015610adf5780601f10610ab457610100808354040283529160200191610adf565b820191906000526020600020905b815481529060010190602001808311610ac257829003601f168201915b5050505050905090565b6000610af4826121e4565b6004600083815260200190815260200160002060009054906101000a900473ffffffffffffffffffffffffffffffffffffffff169050919050565b6000610b3a8261222f565b90508073ffffffffffffffffffffffffffffffffffffffff168373ffffffffffffffffffffffffffffffffffffffff1603610baa576040517f08c379a0000000000000000000000000000000000000000000000000000000008152600401610ba190613c28565b60405180910390fd5b8073ffffffffffffffffffffffffffffffffffffffff16610bc96122b5565b73ffffffffffffffffffffffffffffffffffffffff161480610bf85750610bf781610bf26122b5565b611e7f565b5b610c37576040517f08c379a0000000000000000000000000000000000000000000000000000000008152600401610c2e90613cba565b60405180910390fd5b610c4183836122bd565b505050565b6008600082815260200190815260200160002060030160009054906101000a900473ffffffffffffffffffffffffffffffffffffffff1673ffffffffffffffffffffffffffffffffffffffff163373ffffffffffffffffffffffffffffffffffffffff1603610cea576040517f08c379a0000000000000000000000000000000000000000000000000000000008152600401610ce190613d4c565b60405180910390fd5b3373ffffffffffffffffffffffffffffffffffffffff166008600083815260200190815260200160002060010160009054906101000a900473ffffffffffffffffffffffffffffffffffffffff1673ffffffffffffffffffffffffffffffffffffffff1603610d8e576040517f08c379a0000000000000000000000000000000000000000000000000000000008152600401610d8590613dde565b60405180910390fd5b60006008600083815260200190815260200160002060050160003373ffffffffffffffffffffffffffffffffffffffff1673ffffffffffffffffffffffffffffffffffffffff16815260200190815260200160002054905060008111610e29576040517f08c379a0000000000000000000000000000000000000000000000000000000008152600401610e2090613e4a565b60405180910390fd5b60006008600084815260200190815260200160002060050160003373ffffffffffffffffffffffffffffffffffffffff1673ffffffffffffffffffffffffffffffffffffffff168152602001908152602001600020819055503373ffffffffffffffffffffffffffffffffffffffff166108fc829081150290604051600060405180830381858888f19350505050158015610ec8573d6000803e3d6000fd5b505050565b600a6020528060005260406000206000915090508060000154908060010154908060020154908060030160009054906101000a900473ffffffffffffffffffffffffffffffffffffffff1690806004018054610f289061378c565b80601f0160208091040260200160405190810160405280929190818152602001828054610f549061378c565b8015610fa15780601f10610f7657610100808354040283529160200191610fa1565b820191906000526020600020905b815481529060010190602001808311610f8457829003601f168201915b5050505050905085565b600060086000838152602001908152602001600020600201549050919050565b610fdc610fd66122b5565b82612376565b61101b576040517f08c379a000000000000000000000000000000000000000000000000000000000815260040161101290613edc565b60405180910390fd5b61102683838361240b565b505050565b611046838383604051806020016040528060008152506117e4565b505050565b803373ffffffffffffffffffffffffffffffffffffffff166008600083815260200190815260200160002060010160009054906101000a900473ffffffffffffffffffffffffffffffffffffffff1673ffffffffffffffffffffffffffffffffffffffff16036110f0576040517f08c379a00000000000000000000000000000000000000000000000000000000081526004016110e790613f48565b60405180910390fd5b60086000838152602001908152602001600020600201543411611148576040517f08c379a000000000000000000000000000000000000000000000000000000000815260040161113f90613fda565b60405180910390fd5b3373ffffffffffffffffffffffffffffffffffffffff166008600084815260200190815260200160002060010160009054906101000a900473ffffffffffffffffffffffffffffffffffffffff1673ffffffffffffffffffffffffffffffffffffffff16036111ec576040517f08c379a00000000000000000000000000000000000000000000000000000000081526004016111e390613f48565b60405180910390fd5b60006008600084815260200190815260200160002060020154146112c15760086000838152602001908152602001600020600201546008600084815260200190815260200160002060050160006008600086815260200190815260200160002060030160009054906101000a900473ffffffffffffffffffffffffffffffffffffffff1673ffffffffffffffffffffffffffffffffffffffff1673ffffffffffffffffffffffffffffffffffffffff16815260200190815260200160002060008282546112b99190613b82565b925050819055505b34600860008481526020019081526020016000206002018190555034600a600084815260200190815260200160002060020181905550336008600084815260200190815260200160002060030160006101000a81548173ffffffffffffffffffffffffffffffffffffffff021916908373ffffffffffffffffffffffffffffffffffffffff1602179055505050565b600080600a600084815260200190815260200160002060030160009054906101000a900473ffffffffffffffffffffffffffffffffffffffff169050600073ffffffffffffffffffffffffffffffffffffffff168173ffffffffffffffffffffffffffffffffffffffff16036113fb576040517f08c379a00000000000000000000000000000000000000000000000000000000081526004016113f290614046565b60405180910390fd5b80915050919050565b813373ffffffffffffffffffffffffffffffffffffffff166008600083815260200190815260200160002060010160009054906101000a900473ffffffffffffffffffffffffffffffffffffffff1673ffffffffffffffffffffffffffffffffffffffff16146114a9576040517f08c379a00000000000000000000000000000000000000000000000000000000081526004016114a0906140b2565b60405180910390fd5b81600860008581526020019081526020016000206000018190555081600a600085815260200190815260200160002060010181905550505050565b60008073ffffffffffffffffffffffffffffffffffffffff168273ffffffffffffffffffffffffffffffffffffffff1603611554576040517f08c379a000000000000000000000000000000000000000000000000000000000815260040161154b90614144565b60405180910390fd5b600360008373ffffffffffffffffffffffffffffffffffffffff1673ffffffffffffffffffffffffffffffffffffffff168152602001908152602001600020549050919050565b60008073ffffffffffffffffffffffffffffffffffffffff163373ffffffffffffffffffffffffffffffffffffffff160361160b576040517f08c379a0000000000000000000000000000000000000000000000000000000008152600401611602906141d6565b60405180910390fd5b600c60003373ffffffffffffffffffffffffffffffffffffffff1673ffffffffffffffffffffffffffffffffffffffff16815260200190815260200160002054905090565b6000806000905060005b600860008581526020019081526020016000206002015481101561172c5760006008600086815260200190815260200160002060050160006008600088815260200190815260200160002060030160009054906101000a900473ffffffffffffffffffffffffffffffffffffffff1673ffffffffffffffffffffffffffffffffffffffff1673ffffffffffffffffffffffffffffffffffffffff16815260200190815260200160002054111561171957818061171590613b3a565b9250505b808061172490613b3a565b91505061165a565b5080915050919050565b6060600180546117459061378c565b80601f01602080910402602001604051908101604052809291908181526020018280546117719061378c565b80156117be5780601f10611793576101008083540402835291602001916117be565b820191906000526020600020905b8154815290600101906020018083116117a157829003601f168201915b5050505050905090565b60075481565b6117e06117d96122b5565b8383612704565b5050565b6117f56117ef6122b5565b83612376565b611834576040517f08c379a000000000000000000000000000000000000000000000000000000000815260040161182b90613edc565b60405180910390fd5b61184084848484612870565b50505050565b606060006118546006611f4f565b67ffffffffffffffff81111561186d5761186c61342a565b5b60405190808252806020026020018201604052801561189b5781602001602082028036833780820191505090505b5090506000600190505b6118af6006611f4f565b8110156118e957808282815181106118ca576118c96141f6565b5b60200260200101818152505080806118e190613b3a565b9150506118a5565b508091505090565b60606118fc826121e4565b60006119066128cc565b905060008151116119265760405180602001604052806000815250611951565b80611930846128e3565b604051602001611941929190614261565b6040516020818303038152906040525b915050919050565b600b5481565b60086020528060005260406000206000915090508060000154908060010160009054906101000a900473ffffffffffffffffffffffffffffffffffffffff16908060020154908060030160009054906101000a900473ffffffffffffffffffffffffffffffffffffffff16908060040180546119da9061378c565b80601f0160208091040260200160405190810160405280929190818152602001828054611a069061378c565b8015611a535780601f10611a2857610100808354040283529160200191611a53565b820191906000526020600020905b815481529060010190602001808311611a3657829003601f168201915b5050505050905085565b803373ffffffffffffffffffffffffffffffffffffffff166008600083815260200190815260200160002060010160009054906101000a900473ffffffffffffffffffffffffffffffffffffffff1673ffffffffffffffffffffffffffffffffffffffff1614611b02576040517f08c379a0000000000000000000000000000000000000000000000000000000008152600401611af9906140b2565b60405180910390fd5b6000611b0d83611350565b9050611b18836129b1565b600a6000848152602001908152602001600020600080820160009055600182016000905560028201600090556003820160006101000a81549073ffffffffffffffffffffffffffffffffffffffff0219169055600482016000611b7b9190612e86565b5050600c60003373ffffffffffffffffffffffffffffffffffffffff1673ffffffffffffffffffffffffffffffffffffffff1681526020019081526020016000206000815480929190611bcd90614285565b91905055507fd0d1bd91f40fdbfdf35852c1a2ffe7d7cc016b4de67d8d6491729cfbf25a80a58333604051611c039291906142ae565b60405180910390a1505050565b803373ffffffffffffffffffffffffffffffffffffffff166008600083815260200190815260200160002060010160009054906101000a900473ffffffffffffffffffffffffffffffffffffffff1673ffffffffffffffffffffffffffffffffffffffff1614611cb5576040517f08c379a0000000000000000000000000000000000000000000000000000000008152600401611cac906140b2565b60405180910390fd5b60006008600084815260200190815260200160002060030160009054906101000a900473ffffffffffffffffffffffffffffffffffffffff1690506000600860008581526020019081526020016000206002015490506000600860008681526020019081526020016000206002018190555060006008600086815260200190815260200160002060030160006101000a81548173ffffffffffffffffffffffffffffffffffffffff021916908373ffffffffffffffffffffffffffffffffffffffff160217905550816008600086815260200190815260200160002060010160006101000a81548173ffffffffffffffffffffffffffffffffffffffff021916908373ffffffffffffffffffffffffffffffffffffffff16021790555081600a600086815260200190815260200160002060030160006101000a81548173ffffffffffffffffffffffffffffffffffffffff021916908373ffffffffffffffffffffffffffffffffffffffff1602179055503373ffffffffffffffffffffffffffffffffffffffff166108fc829081150290604051600060405180830381858888f19350505050158015611e6d573d6000803e3d6000fd5b50611e7933838661240b565b50505050565b6000600560008473ffffffffffffffffffffffffffffffffffffffff1673ffffffffffffffffffffffffffffffffffffffff16815260200190815260200160002060008373ffffffffffffffffffffffffffffffffffffffff1673ffffffffffffffffffffffffffffffffffffffff16815260200190815260200160002060009054906101000a900460ff16905092915050565b600960009054906101000a900473ffffffffffffffffffffffffffffffffffffffff1681565b6001816000016000828254019250508190555050565b600081600001549050919050565b600073ffffffffffffffffffffffffffffffffffffffff168273ffffffffffffffffffffffffffffffffffffffff1603611fcc576040517f08c379a0000000000000000000000000000000000000000000000000000000008152600401611fc390614323565b60405180910390fd5b611fd581612aff565b15612015576040517f08c379a000000000000000000000000000000000000000000000000000000000815260040161200c9061438f565b60405180910390fd5b612023600083836001612b40565b61202c81612aff565b1561206c576040517f08c379a00000000000000000000000000000000000000000000000000000000081526004016120639061438f565b60405180910390fd5b6001600360008473ffffffffffffffffffffffffffffffffffffffff1673ffffffffffffffffffffffffffffffffffffffff16815260200190815260200160002060008282540192505081905550816002600083815260200190815260200160002060006101000a81548173ffffffffffffffffffffffffffffffffffffffff021916908373ffffffffffffffffffffffffffffffffffffffff160217905550808273ffffffffffffffffffffffffffffffffffffffff16600073ffffffffffffffffffffffffffffffffffffffff167fddf252ad1be2c89b69c2b068fc378daa952ba7f163c4a11628f55a4df523b3ef60405160405180910390a4612176600083836001612b46565b5050565b60007f01ffc9a7000000000000000000000000000000000000000000000000000000007bffffffffffffffffffffffffffffffffffffffffffffffffffffffff1916827bffffffffffffffffffffffffffffffffffffffffffffffffffffffff1916149050919050565b6121ed81612aff565b61222c576040517f08c379a0000000000000000000000000000000000000000000000000000000008152600401612223906143fb565b60405180910390fd5b50565b60008061223b83612b4c565b9050600073ffffffffffffffffffffffffffffffffffffffff168173ffffffffffffffffffffffffffffffffffffffff16036122ac576040517f08c379a00000000000000000000000000000000000000000000000000000000081526004016122a3906143fb565b60405180910390fd5b80915050919050565b600033905090565b816004600083815260200190815260200160002060006101000a81548173ffffffffffffffffffffffffffffffffffffffff021916908373ffffffffffffffffffffffffffffffffffffffff160217905550808273ffffffffffffffffffffffffffffffffffffffff166123308361222f565b73ffffffffffffffffffffffffffffffffffffffff167f8c5be1e5ebec7d5bd14f71427d1e84f3dd0314c0f7b2291e5b200ac8c7c3b92560405160405180910390a45050565b6000806123828361222f565b90508073ffffffffffffffffffffffffffffffffffffffff168473ffffffffffffffffffffffffffffffffffffffff1614806123c457506123c38185611e7f565b5b8061240257508373ffffffffffffffffffffffffffffffffffffffff166123ea84610ae9565b73ffffffffffffffffffffffffffffffffffffffff16145b91505092915050565b8273ffffffffffffffffffffffffffffffffffffffff1661242b8261222f565b73ffffffffffffffffffffffffffffffffffffffff1614612481576040517f08c379a00000000000000000000000000000000000000000000000000000000081526004016124789061448d565b60405180910390fd5b600073ffffffffffffffffffffffffffffffffffffffff168273ffffffffffffffffffffffffffffffffffffffff16036124f0576040517f08c379a00000000000000000000000000000000000000000000000000000000081526004016124e79061451f565b60405180910390fd5b6124fd8383836001612b40565b8273ffffffffffffffffffffffffffffffffffffffff1661251d8261222f565b73ffffffffffffffffffffffffffffffffffffffff1614612573576040517f08c379a000000000000000000000000000000000000000000000000000000000815260040161256a9061448d565b60405180910390fd5b6004600082815260200190815260200160002060006101000a81549073ffffffffffffffffffffffffffffffffffffffff02191690556001600360008573ffffffffffffffffffffffffffffffffffffffff1673ffffffffffffffffffffffffffffffffffffffff168152602001908152602001600020600082825403925050819055506001600360008473ffffffffffffffffffffffffffffffffffffffff1673ffffffffffffffffffffffffffffffffffffffff16815260200190815260200160002060008282540192505081905550816002600083815260200190815260200160002060006101000a81548173ffffffffffffffffffffffffffffffffffffffff021916908373ffffffffffffffffffffffffffffffffffffffff160217905550808273ffffffffffffffffffffffffffffffffffffffff168473ffffffffffffffffffffffffffffffffffffffff167fddf252ad1be2c89b69c2b068fc378daa952ba7f163c4a11628f55a4df523b3ef60405160405180910390a46126ff8383836001612b46565b505050565b8173ffffffffffffffffffffffffffffffffffffffff168373ffffffffffffffffffffffffffffffffffffffff1603612772576040517f08c379a00000000000000000000000000000000000000000000000000000000081526004016127699061458b565b60405180910390fd5b80600560008573ffffffffffffffffffffffffffffffffffffffff1673ffffffffffffffffffffffffffffffffffffffff16815260200190815260200160002060008473ffffffffffffffffffffffffffffffffffffffff1673ffffffffffffffffffffffffffffffffffffffff16815260200190815260200160002060006101000a81548160ff0219169083151502179055508173ffffffffffffffffffffffffffffffffffffffff168373ffffffffffffffffffffffffffffffffffffffff167f17307eab39ab6107e8899845ad3d59bd9653f200f220920489ca2b5937696c31836040516128639190613092565b60405180910390a3505050565b61287b84848461240b565b61288784848484612b89565b6128c6576040517f08c379a00000000000000000000000000000000000000000000000000000000081526004016128bd9061461d565b60405180910390fd5b50505050565b606060405180602001604052806000815250905090565b6060600060016128f284612d10565b01905060008167ffffffffffffffff8111156129115761291061342a565b5b6040519080825280601f01601f1916602001820160405280156129435781602001600182028036833780820191505090505b509050600082602001820190505b6001156129a6578080600190039150507f3031323334353637383961626364656600000000000000000000000000000000600a86061a8153600a858161299a5761299961463d565b5b04945060008503612951575b819350505050919050565b60006129bc8261222f565b90506129cc816000846001612b40565b6129d58261222f565b90506004600083815260200190815260200160002060006101000a81549073ffffffffffffffffffffffffffffffffffffffff02191690556001600360008373ffffffffffffffffffffffffffffffffffffffff1673ffffffffffffffffffffffffffffffffffffffff168152602001908152602001600020600082825403925050819055506002600083815260200190815260200160002060006101000a81549073ffffffffffffffffffffffffffffffffffffffff021916905581600073ffffffffffffffffffffffffffffffffffffffff168273ffffffffffffffffffffffffffffffffffffffff167fddf252ad1be2c89b69c2b068fc378daa952ba7f163c4a11628f55a4df523b3ef60405160405180910390a4612afb816000846001612b46565b5050565b60008073ffffffffffffffffffffffffffffffffffffffff16612b2183612b4c565b73ffffffffffffffffffffffffffffffffffffffff1614159050919050565b50505050565b50505050565b60006002600083815260200190815260200160002060009054906101000a900473ffffffffffffffffffffffffffffffffffffffff169050919050565b6000612baa8473ffffffffffffffffffffffffffffffffffffffff16612e63565b15612d03578373ffffffffffffffffffffffffffffffffffffffff1663150b7a02612bd36122b5565b8786866040518563ffffffff1660e01b8152600401612bf594939291906146c1565b6020604051808303816000875af1925050508015612c3157506040513d601f19601f82011682018060405250810190612c2e9190614722565b60015b612cb3573d8060008114612c61576040519150601f19603f3d011682016040523d82523d6000602084013e612c66565b606091505b506000815103612cab576040517f08c379a0000000000000000000000000000000000000000000000000000000008152600401612ca29061461d565b60405180910390fd5b805181602001fd5b63150b7a0260e01b7bffffffffffffffffffffffffffffffffffffffffffffffffffffffff1916817bffffffffffffffffffffffffffffffffffffffffffffffffffffffff191614915050612d08565b600190505b949350505050565b600080600090507a184f03e93ff9f4daa797ed6e38ed64bf6a1f0100000000000000008310612d6e577a184f03e93ff9f4daa797ed6e38ed64bf6a1f0100000000000000008381612d6457612d6361463d565b5b0492506040810190505b6d04ee2d6d415b85acef81000000008310612dab576d04ee2d6d415b85acef81000000008381612da157612da061463d565b5b0492506020810190505b662386f26fc100008310612dda57662386f26fc100008381612dd057612dcf61463d565b5b0492506010810190505b6305f5e1008310612e03576305f5e1008381612df957612df861463d565b5b0492506008810190505b6127108310612e28576127108381612e1e57612e1d61463d565b5b0492506004810190505b60648310612e4b5760648381612e4157612e4061463d565b5b0492506002810190505b600a8310612e5a576001810190505b80915050919050565b6000808273ffffffffffffffffffffffffffffffffffffffff163b119050919050565b508054612e929061378c565b6000825580601f10612ea45750612ec3565b601f016020900490600052602060002090810190612ec29190612ec6565b5b50565b5b80821115612edf576000816000905550600101612ec7565b5090565b6000604051905090565b600080fd5b600080fd5b6000819050919050565b612f0a81612ef7565b8114612f1557600080fd5b50565b600081359050612f2781612f01565b92915050565b600080fd5b600080fd5b600080fd5b60008083601f840112612f5257612f51612f2d565b5b8235905067ffffffffffffffff811115612f6f57612f6e612f32565b5b602083019150836001820283011115612f8b57612f8a612f37565b5b9250929050565b600080600060408486031215612fab57612faa612eed565b5b6000612fb986828701612f18565b935050602084013567ffffffffffffffff811115612fda57612fd9612ef2565b5b612fe686828701612f3c565b92509250509250925092565b60007fffffffff0000000000000000000000000000000000000000000000000000000082169050919050565b61302781612ff2565b811461303257600080fd5b50565b6000813590506130448161301e565b92915050565b6000602082840312156130605761305f612eed565b5b600061306e84828501613035565b91505092915050565b60008115159050919050565b61308c81613077565b82525050565b60006020820190506130a76000830184613083565b92915050565b600081519050919050565b600082825260208201905092915050565b60005b838110156130e75780820151818401526020810190506130cc565b60008484015250505050565b6000601f19601f8301169050919050565b600061310f826130ad565b61311981856130b8565b93506131298185602086016130c9565b613132816130f3565b840191505092915050565b600060208201905081810360008301526131578184613104565b905092915050565b60006020828403121561317557613174612eed565b5b600061318384828501612f18565b91505092915050565b600073ffffffffffffffffffffffffffffffffffffffff82169050919050565b60006131b78261318c565b9050919050565b6131c7816131ac565b82525050565b60006020820190506131e260008301846131be565b92915050565b6131f1816131ac565b81146131fc57600080fd5b50565b60008135905061320e816131e8565b92915050565b6000806040838503121561322b5761322a612eed565b5b6000613239858286016131ff565b925050602061324a85828601612f18565b9150509250929050565b61325d81612ef7565b82525050565b600061326e8261318c565b9050919050565b61327e81613263565b82525050565b600060a0820190506132996000830188613254565b6132a66020830187613254565b6132b36040830186613254565b6132c06060830185613275565b81810360808301526132d28184613104565b90509695505050505050565b60006020820190506132f36000830184613254565b92915050565b60008060006060848603121561331257613311612eed565b5b6000613320868287016131ff565b9350506020613331868287016131ff565b925050604061334286828701612f18565b9150509250925092565b6000806040838503121561336357613362612eed565b5b600061337185828601612f18565b925050602061338285828601612f18565b9150509250929050565b6000602082840312156133a2576133a1612eed565b5b60006133b0848285016131ff565b91505092915050565b6133c281613077565b81146133cd57600080fd5b50565b6000813590506133df816133b9565b92915050565b600080604083850312156133fc576133fb612eed565b5b600061340a858286016131ff565b925050602061341b858286016133d0565b9150509250929050565b600080fd5b7f4e487b7100000000000000000000000000000000000000000000000000000000600052604160045260246000fd5b613462826130f3565b810181811067ffffffffffffffff821117156134815761348061342a565b5b80604052505050565b6000613494612ee3565b90506134a08282613459565b919050565b600067ffffffffffffffff8211156134c0576134bf61342a565b5b6134c9826130f3565b9050602081019050919050565b82818337600083830152505050565b60006134f86134f3846134a5565b61348a565b90508281526020810184848401111561351457613513613425565b5b61351f8482856134d6565b509392505050565b600082601f83011261353c5761353b612f2d565b5b813561354c8482602086016134e5565b91505092915050565b6000806000806080858703121561356f5761356e612eed565b5b600061357d878288016131ff565b945050602061358e878288016131ff565b935050604061359f87828801612f18565b925050606085013567ffffffffffffffff8111156135c0576135bf612ef2565b5b6135cc87828801613527565b91505092959194509250565b600081519050919050565b600082825260208201905092915050565b6000819050602082019050919050565b61360d81612ef7565b82525050565b600061361f8383613604565b60208301905092915050565b6000602082019050919050565b6000613643826135d8565b61364d81856135e3565b9350613658836135f4565b8060005b838110156136895781516136708882613613565b975061367b8361362b565b92505060018101905061365c565b5085935050505092915050565b600060208201905081810360008301526136b08184613638565b905092915050565b600060a0820190506136cd6000830188613254565b6136da6020830187613275565b6136e76040830186613254565b6136f46060830185613275565b81810360808301526137068184613104565b90509695505050505050565b6000806040838503121561372957613728612eed565b5b6000613737858286016131ff565b9250506020613748858286016131ff565b9150509250929050565b600082905092915050565b7f4e487b7100000000000000000000000000000000000000000000000000000000600052602260045260246000fd5b600060028204905060018216806137a457607f821691505b6020821081036137b7576137b661375d565b5b50919050565b60008190508160005260206000209050919050565b60006020601f8301049050919050565b600082821b905092915050565b60006008830261381f7fffffffffffffffffffffffffffffffffffffffffffffffffffffffffffffffff826137e2565b61382986836137e2565b95508019841693508086168417925050509392505050565b6000819050919050565b600061386661386161385c84612ef7565b613841565b612ef7565b9050919050565b6000819050919050565b6138808361384b565b61389461388c8261386d565b8484546137ef565b825550505050565b600090565b6138a961389c565b6138b4818484613877565b505050565b5b818110156138d8576138cd6000826138a1565b6001810190506138ba565b5050565b601f82111561391d576138ee816137bd565b6138f7846137d2565b81016020851015613906578190505b61391a613912856137d2565b8301826138b9565b50505b505050565b600082821c905092915050565b600061394060001984600802613922565b1980831691505092915050565b6000613959838361392f565b9150826002028217905092915050565b6139738383613752565b67ffffffffffffffff81111561398c5761398b61342a565b5b613996825461378c565b6139a18282856138dc565b6000601f8311600181146139d057600084156139be578287013590505b6139c8858261394d565b865550613a30565b601f1984166139de866137bd565b60005b82811015613a06578489013582556001820191506020850194506020810190506139e1565b86831015613a235784890135613a1f601f89168261392f565b8355505b6001600288020188555050505b50505050505050565b613a42826130ad565b67ffffffffffffffff811115613a5b57613a5a61342a565b5b613a65825461378c565b613a708282856138dc565b600060209050601f831160018114613aa35760008415613a91578287015190505b613a9b858261394d565b865550613b03565b601f198416613ab1866137bd565b60005b82811015613ad957848901518255600182019150602085019450602081019050613ab4565b86831015613af65784890151613af2601f89168261392f565b8355505b6001600288020188555050505b505050505050565b7f4e487b7100000000000000000000000000000000000000000000000000000000600052601160045260246000fd5b6000613b4582612ef7565b91507fffffffffffffffffffffffffffffffffffffffffffffffffffffffffffffffff8203613b7757613b76613b0b565b5b600182019050919050565b6000613b8d82612ef7565b9150613b9883612ef7565b9250828201905080821115613bb057613baf613b0b565b5b92915050565b7f4552433732313a20617070726f76616c20746f2063757272656e74206f776e6560008201527f7200000000000000000000000000000000000000000000000000000000000000602082015250565b6000613c126021836130b8565b9150613c1d82613bb6565b604082019050919050565b60006020820190508181036000830152613c4181613c05565b9050919050565b7f4552433732313a20617070726f76652063616c6c6572206973206e6f7420746f60008201527f6b656e206f776e6572206f7220617070726f76656420666f7220616c6c000000602082015250565b6000613ca4603d836130b8565b9150613caf82613c48565b604082019050919050565b60006020820190508181036000830152613cd381613c97565b9050919050565b7f596f752063616e6e6f7420776974686472617720612077696e6e696e6720626960008201527f6400000000000000000000000000000000000000000000000000000000000000602082015250565b6000613d366021836130b8565b9150613d4182613cda565b604082019050919050565b60006020820190508181036000830152613d6581613d29565b9050919050565b7f596f752063616e6e6f7420776974686472617720796f7572206f776e2061737360008201527f6574000000000000000000000000000000000000000000000000000000000000602082015250565b6000613dc86022836130b8565b9150613dd382613d6c565b604082019050919050565b60006020820190508181036000830152613df781613dbb565b9050919050565b7f596f752068617665206e6f74206d616465206120626964207965740000000000600082015250565b6000613e34601b836130b8565b9150613e3f82613dfe565b602082019050919050565b60006020820190508181036000830152613e6381613e27565b9050919050565b7f4552433732313a2063616c6c6572206973206e6f7420746f6b656e206f776e6560008201527f72206f7220617070726f76656400000000000000000000000000000000000000602082015250565b6000613ec6602d836130b8565b9150613ed182613e6a565b604082019050919050565b60006020820190508181036000830152613ef581613eb9565b9050919050565b7f596f752063616e6e6f7420626964206f6e20796f7572206f776e206173736574600082015250565b6000613f326020836130b8565b9150613f3d82613efc565b602082019050919050565b60006020820190508181036000830152613f6181613f25565b9050919050565b7f426964206d75737420626520686967686572207468616e2063757272656e742060008201527f6869676865737420626964000000000000000000000000000000000000000000602082015250565b6000613fc4602b836130b8565b9150613fcf82613f68565b604082019050919050565b60006020820190508181036000830152613ff381613fb7565b9050919050565b7f4e6f417373657445786973747300000000000000000000000000000000000000600082015250565b6000614030600d836130b8565b915061403b82613ffa565b602082019050919050565b6000602082019050818103600083015261405f81614023565b9050919050565b7f596f7520646f206e6f74206f776e207468697320617373657400000000000000600082015250565b600061409c6019836130b8565b91506140a782614066565b602082019050919050565b600060208201905081810360008301526140cb8161408f565b9050919050565b7f4552433732313a2061646472657373207a65726f206973206e6f74206120766160008201527f6c6964206f776e65720000000000000000000000000000000000000000000000602082015250565b600061412e6029836130b8565b9150614139826140d2565b604082019050919050565b6000602082019050818103600083015261415d81614121565b9050919050565b7f4552433732313a2062616c616e636520717565727920666f7220746865207a6560008201527f726f206164647265737300000000000000000000000000000000000000000000602082015250565b60006141c0602a836130b8565b91506141cb82614164565b604082019050919050565b600060208201905081810360008301526141ef816141b3565b9050919050565b7f4e487b7100000000000000000000000000000000000000000000000000000000600052603260045260246000fd5b600081905092915050565b600061423b826130ad565b6142458185614225565b93506142558185602086016130c9565b80840191505092915050565b600061426d8285614230565b91506142798284614230565b91508190509392505050565b600061429082612ef7565b9150600082036142a3576142a2613b0b565b5b600182039050919050565b60006040820190506142c36000830185613254565b6142d060208301846131be565b9392505050565b7f4552433732313a206d696e7420746f20746865207a65726f2061646472657373600082015250565b600061430d6020836130b8565b9150614318826142d7565b602082019050919050565b6000602082019050818103600083015261433c81614300565b9050919050565b7f4552433732313a20746f6b656e20616c7265616479206d696e74656400000000600082015250565b6000614379601c836130b8565b915061438482614343565b602082019050919050565b600060208201905081810360008301526143a88161436c565b9050919050565b7f4552433732313a20696e76616c696420746f6b656e2049440000000000000000600082015250565b60006143e56018836130b8565b91506143f0826143af565b602082019050919050565b60006020820190508181036000830152614414816143d8565b9050919050565b7f4552433732313a207472616e736665722066726f6d20696e636f72726563742060008201527f6f776e6572000000000000000000000000000000000000000000000000000000602082015250565b60006144776025836130b8565b91506144828261441b565b604082019050919050565b600060208201905081810360008301526144a68161446a565b9050919050565b7f4552433732313a207472616e7366657220746f20746865207a65726f2061646460008201527f7265737300000000000000000000000000000000000000000000000000000000602082015250565b60006145096024836130b8565b9150614514826144ad565b604082019050919050565b60006020820190508181036000830152614538816144fc565b9050919050565b7f4552433732313a20617070726f766520746f2063616c6c657200000000000000600082015250565b60006145756019836130b8565b91506145808261453f565b602082019050919050565b600060208201905081810360008301526145a481614568565b9050919050565b7f4552433732313a207472616e7366657220746f206e6f6e20455243373231526560008201527f63656976657220696d706c656d656e7465720000000000000000000000000000602082015250565b60006146076032836130b8565b9150614612826145ab565b604082019050919050565b60006020820190508181036000830152614636816145fa565b9050919050565b7f4e487b7100000000000000000000000000000000000000000000000000000000600052601260045260246000fd5b600081519050919050565b600082825260208201905092915050565b60006146938261466c565b61469d8185614677565b93506146ad8185602086016130c9565b6146b6816130f3565b840191505092915050565b60006080820190506146d660008301876131be565b6146e360208301866131be565b6146f06040830185613254565b81810360608301526147028184614688565b905095945050505050565b60008151905061471c8161301e565b92915050565b60006020828403121561473857614737612eed565b5b60006147468482850161470d565b9150509291505056fea2646970667358221220a567ea86e32a52b36c3d2523f151f3314585074a6bb1d418f180becbd0914c1e64736f6c63430008130033",
  "immutableReferences": {},
  "source": "// SPDX-License-Identifier: MIT\r\npragma solidity ^0.8.0;\r\n\r\nimport \"@openzeppelin/contracts/token/ERC721/ERC721.sol\";\r\nimport \"@openzeppelin/contracts/utils/Counters.sol\";\r\n\r\n\r\ncontract ChronosCapsuleNFT is ERC721 {\r\n    using Counters for Counters.Counter;\r\n    Counters.Counter private _tokenIds;\r\n\r\n    struct Asset {\r\n        uint256 basePrice;\r\n        address payable owner;\r\n        uint256 highestBid;\r\n        address payable highestBidder;\r\n        string urlOfAsset;\r\n        mapping(address => uint256) bids;\r\n    }\r\n\r\n    struct AssetDetails {\r\n        uint256 tokenId;\r\n        uint256 basePrice;\r\n        uint256 highestBid;\r\n        address payable owner;\r\n        string urlOfAsset;\r\n    }\r\n\r\n    uint256 public tokenCount;\r\n    mapping(uint256 => Asset) public assets;\r\n    address public administrator;\r\n    mapping(uint256 => AssetDetails) public assetMap;\r\n    uint256 public assetsCount;\r\n    mapping (address => uint256) private countOfOwnedTokens;\r\n \r\n\r\n    constructor() public ERC721(\"ChronosCapsuleNFT\", \"CCNFT\") {\r\n        administrator = msg.sender;\r\n    }\r\n\r\n    event AssetCancelled(uint256 tokenId, address owner);\r\n\r\n    // Modifiers\r\n\r\n     modifier bidHigherThanCurrentBid(uint256 _tokenId) {\r\n        require(msg.value > assets[_tokenId].highestBid, \"Bid must be higher than current highest bid\");\r\n        _;\r\n    }\r\n\r\n     modifier ownerValidation(uint256 _tokenId) {\r\n        require(assets[_tokenId].owner == msg.sender, \"You do not own this asset\");\r\n        _;\r\n    }\r\n\r\n    modifier notOwner(uint256 _tokenId) {\r\n        require(assets[_tokenId].owner != msg.sender, \"You cannot bid on your own asset\");\r\n        _;\r\n    }\r\n\r\n\r\n    function balanceOf() public view returns (uint256) {\r\n        require(msg.sender != address(0), \"ERC721: balance query for the zero address\");\r\n\r\n        return countOfOwnedTokens[msg.sender];\r\n    }\r\n\r\n     function tokenizeAsset(uint256 basePrice,string calldata urlOfAsset) public {\r\n        _tokenIds.increment();\r\n        uint256 newItemId = _tokenIds.current();\r\n        Asset storage newAsset = assets[newItemId];\r\n        newAsset.basePrice = basePrice;\r\n        newAsset.owner = payable(msg.sender);\r\n        newAsset.highestBid = basePrice;\r\n        newAsset.highestBidder = payable(address(0));\r\n        newAsset.urlOfAsset = urlOfAsset;\r\n        assetMap[tokenCount] = AssetDetails(tokenCount,basePrice,basePrice,payable(msg.sender),urlOfAsset);\r\n        _mint(msg.sender, newItemId);\r\n        countOfOwnedTokens[msg.sender]++;\r\n        tokenCount=tokenCount+1;\r\n    }\r\n\r\n\r\n\r\n    function getAllTokenIds() public view returns (uint256[] memory) {\r\n    uint256[] memory tokenIds = new uint256[](_tokenIds.current());\r\n    for (uint256 i = 1; i < _tokenIds.current(); i++) {\r\n        tokenIds[i] = i;\r\n    }\r\n    return tokenIds;\r\n    }\r\n\r\n    function ownerOf(uint256 tokenId) public view override returns (address) {\r\n        address owner = assetMap[tokenId].owner;\r\n        require(owner != address(0), \"NoAssetExists\");\r\n        return owner;\r\n    }\r\n\r\n    function getTokenHighestBid(uint256 _tokenId) public view returns (uint256) {\r\n    return assets[_tokenId].highestBid;\r\n}\r\n\r\n    function bid(uint256 _tokenId) public payable notOwner(_tokenId){\r\n        require(msg.value > assets[_tokenId].highestBid, \"Bid must be higher than current highest bid\");\r\n        require(assets[_tokenId].owner != msg.sender, \"You cannot bid on your own asset\");\r\n\r\n        if (assets[_tokenId].highestBid != 0) {\r\n            assets[_tokenId].bids[assets[_tokenId].highestBidder] += assets[_tokenId].highestBid;\r\n        }\r\n        assets[_tokenId].highestBid = msg.value;\r\n        assetMap[_tokenId].highestBid = msg.value;\r\n        assets[_tokenId].highestBidder = payable(msg.sender);\r\n    }\r\n\r\n        function changeAssetValue(uint256 _tokenId, uint256 _newPrice) public ownerValidation(_tokenId) {\r\n        assets[_tokenId].basePrice = _newPrice;\r\n        assetMap[_tokenId].basePrice = _newPrice;\r\n    }\r\n\r\n\r\n    function withdrawBid(uint256 _tokenId) public {\r\n        require(msg.sender != assets[_tokenId].highestBidder, \"You cannot withdraw a winning bid\");\r\n        require(assets[_tokenId].owner != msg.sender, \"You cannot withdraw your own asset\");\r\n        uint256 bidAmount = assets[_tokenId].bids[msg.sender];\r\n        require(bidAmount > 0, \"You have not made a bid yet\");\r\n        assets[_tokenId].bids[msg.sender] = 0;\r\n        payable(msg.sender).transfer(bidAmount);\r\n    }\r\n\r\n\r\n    function sell(uint256 _tokenId) public ownerValidation(_tokenId){\r\n    address payable recipient = payable(assets[_tokenId].highestBidder);\r\n        uint256 amount = assets[_tokenId].highestBid;\r\n        assets[_tokenId].highestBid = 0;\r\n        assets[_tokenId].highestBidder = payable(address(0));\r\n        assets[_tokenId].owner = recipient;\r\n        assetMap[_tokenId].owner = recipient;\r\n\r\n        payable(msg.sender).transfer(amount);\r\n        _transfer(msg.sender, recipient, _tokenId);\r\n    }\r\n\r\n    function getBidCount(uint256 _tokenId) public view returns (uint256) {\r\n        uint256 count = 0;\r\n        for (uint256 i = 0; i < assets[_tokenId].highestBid; i++) {\r\n            if (assets[_tokenId].bids[assets[_tokenId].highestBidder] > 0) {\r\n                count++;\r\n            }\r\n        }\r\n        return count;\r\n    }\r\n\r\n    function cancelAsset(uint256 _tokenId) public  ownerValidation(_tokenId){\r\n\r\n    address tokenOwner = ownerOf(_tokenId);\r\n    _burn(_tokenId);\r\n    delete assetMap[_tokenId];\r\n    countOfOwnedTokens[msg.sender]--;\r\n    emit AssetCancelled(_tokenId, msg.sender);\r\n}  \r\n}",
  "sourcePath": "C:\\Users\\Ankita\\nft-project\\NFT\\ChronosCapsule-DApp\\ChronosCapsule-Contract\\contracts\\ChronosCapsuleNFT.sol",
  "compiler": {
    "name": "solc",
    "version": "0.8.19+commit.7dd6d404.Emscripten.clang"
  },
  "schemaVersion": "3.4.13",
  "updatedAt": "2023-05-01T02:34:53.135Z",
  "networkType": "ethereum",
  "devdoc": {
    "events": {
      "Approval(address,address,uint256)": {
        "details": "Emitted when `owner` enables `approved` to manage the `tokenId` token."
      },
      "ApprovalForAll(address,address,bool)": {
        "details": "Emitted when `owner` enables or disables (`approved`) `operator` to manage all of its assets."
      },
      "Transfer(address,address,uint256)": {
        "details": "Emitted when `tokenId` token is transferred from `from` to `to`."
      }
    },
    "kind": "dev",
    "methods": {
      "approve(address,uint256)": {
        "details": "See {IERC721-approve}."
      },
      "balanceOf(address)": {
        "details": "See {IERC721-balanceOf}."
      },
      "getApproved(uint256)": {
        "details": "See {IERC721-getApproved}."
      },
      "isApprovedForAll(address,address)": {
        "details": "See {IERC721-isApprovedForAll}."
      },
      "name()": {
        "details": "See {IERC721Metadata-name}."
      },
      "ownerOf(uint256)": {
        "details": "See {IERC721-ownerOf}."
      },
      "safeTransferFrom(address,address,uint256)": {
        "details": "See {IERC721-safeTransferFrom}."
      },
      "safeTransferFrom(address,address,uint256,bytes)": {
        "details": "See {IERC721-safeTransferFrom}."
      },
      "setApprovalForAll(address,bool)": {
        "details": "See {IERC721-setApprovalForAll}."
      },
      "supportsInterface(bytes4)": {
        "details": "See {IERC165-supportsInterface}."
      },
      "symbol()": {
        "details": "See {IERC721Metadata-symbol}."
      },
      "tokenURI(uint256)": {
        "details": "See {IERC721Metadata-tokenURI}."
      },
      "transferFrom(address,address,uint256)": {
        "details": "See {IERC721-transferFrom}."
      }
    },
    "version": 1
  },
  "userdoc": {
    "kind": "user",
    "methods": {},
    "version": 1
  }
}